:1000000068540020B51B0000FD5E0000E51B0000E9
:10001000E51B0000E51B0000E51B000000000000E0
:10002000000000000000000000000000C91A0000ED
:10003000E51B000000000000811A0000895D00003F
:100040008D1B00008D1B00008D1B00008D1B000010
:100050008D1B00008D1B00008D1B00008D1B000000
:100060008D1B00008D1B00008D1B00008D1B0000F0
:100070008D1B00008D1B00008D1B00008D1B0000E0
:100080008D1B00008D1B00008D1B00008D1B0000D0
:100090008D1B00008D1B00008D1B00008D1B0000C0
:1000A0008D1B00008D1B00008D1B00008D1B0000B0
:1000B0008D1B00008D1B00008D1B00008D1B0000A0
:1000C0008D1B00008D1B00008D1B00008D1B000090
:1000D0008D1B00008D1B00008D1B00008D1B000080
:1000E0008D1B00008D1B00008D1B00008D1B000070
:1000F0008D1B00008D1B00008D1B00008D1B000060
:1001000053B94AB9002908BF00281CBF4FF0FF317E
:100110004FF0FF3000F06CB9ADF1080C6DE904CE82
:1001200000F006F8DDF804E0DDE9022304B07047D2
:100130002DE9F047089E0D4604468E46002B40F000
:1001400082808A42174646D9B2FA82F24AB1C2F197
:10015000200105FA02F320FA01F1974041EA030E6B
:1001600094404FEA1748230CBEFBF8FCB9B208FBD9
:100170001CEE43EA0E430CFB01F098420AD9FB182F
:100180000CF1FF3580F01681984240F21381ACF1FA
:10019000020C3B441B1AA4B2B3FBF8F008FB10336B
:1001A00044EA034400FB01F1A14209D93C1900F1E2
:1001B000FF3380F00181A14240F2FE8002383C44CE
:1001C000641A40EA0C4000211EB1D4400023C6E965
:1001D0000043BDE8F08702B9FFDEB2FA82F2002ADE
:1001E0004FD1CB1B4FEA174E1FFA87F80121B3FB03
:1001F000FEFC250C0EFB1C3345EA034508FB0CF303
:10020000AB4207D97D190CF1FF3002D2AB4200F2AC
:10021000E7808446ED1AA3B2B5FBFEF00EFB105545
:1002200043EA054408FB00F8A04507D93C1900F152
:10023000FF3302D2A04500F2D7801846A4EB080491
:1002400040EA0C40C0E78B4208D9002E00F0AF8096
:100250000021C6E900050846BDE8F087B3FA83F13E
:1002600000294BD1AB4202D3824200F2B780841AFC
:1002700065EB030301209E46002EAAD0C6E9004E7E
:10028000A7E7C2F1200C01FA02F3974020FA0CF024
:100290004FEA174E21FA0CFC1843BCFBFEF1050C8B
:1002A0000EFB11CC1FFA87F845EA0C4501FB08F359
:1002B000AB4204FA02F409D97D1901F1FF3C80F048
:1002C0008B80AB4240F2888002393D44EB1A85B204
:1002D000B3FBFEF00EFB103345EA034500FB08F3C9
:1002E000AB4207D97D1900F1FF3C71D2AB426FD907
:1002F00002383D44EB1A40EA014178E7C1F1200C95
:100300008B4022FA0CF71F4320FA0CF405FA01F394
:100310004FEA174E25FA0CF51C43230CB5FBFEF9EA
:100320001FFA87F80EFB195543EA054509FB08FA41
:10033000AA4502FA01F200FA01F308D97D1909F180
:10034000FF3047D2AA4545D9A9F102093D44A5EBA2
:100350000A05A4B2B5FBFEF00EFB105544EA0544B5
:1003600000FB08F8A04507D93C1900F1FF352DD254
:10037000A0452BD902383C4440EA0940A4EB0804CC
:10038000A0FB02894C45C6464D4619D316D05EB136
:10039000B3EB0E0264EB050404FA0CFCCA404CEA11
:1003A0000202CC40C6E900240021BDE8F0873146B6
:1003B00030460EE7AC46EDE6184601E74345E6D287
:1003C000B8EB020E69EB07050138E0E72846D3E7F2
:1003D00060468FE78146BAE7614677E708464BE714
:1003E000ACF1020C3D4415E702383C4426E700BF5F
:1003F000704700BF00B585B000F01EF8064800F059
:100400000DF820B101A800F033F908B1FEE7FEE7CE
:1004100001A804F08BF8FEE77882000008B5054BD0
:100420001B6813B1034B186808BD03F0EFFB014BC9
:100430001860F7E7D800002008B54FF4C051024813
:1004400002F074FE08BD00BFDC00002002680E4B05
:100450009A420DD1C2680389D84382420CD810B4A5
:10046000D418012010B18B68A34203D910BC704787
:10047000002070470020F9E7002010B18B68A342EC
:1004800000D97047002070473DB8F39600B587B09B
:10049000134600200490039002904FF48072019262
:1004A000054A00920A46014600F054FB10B907B015
:1004B0005DF804FB0320FAE73C25002030B583B04B
:1004C00005460C46002300930193084604F0B2F958
:1004D00010B32A68144B9A4212D0EA6A124B9A421D
:1004E00014D0019B009A934200D90093009BA36013
:1004F000009A2146284600F0E9F9002003B030BDFB
:100500006A460021284604F05FF8E6E701AA0121C7
:10051000284604F059F8E4E704F10801002004F04B
:10052000D1FCA3680093E3E73DB8F3962DE9F84FBB
:10053000884691461F46DDF828A00B9E00250FE057
:1005400023460F4AE919404605F061FAA0B923464F
:100550000B4A05EB0A01484605F078FA70B92544C4
:10056000B54206D2741BB4F5806FE9D94FF48064AC
:10057000E6E70020BDE8F88F0120FBE70120F9E75E
:100580003C19002070B584B004460D46602200215D
:1005900005F025FD344B6362344B236500260CE0E7
:1005A0003146002003F0EBFF2C2101FB06F1203146
:1005B0002144C0B200F0CAFF0136012EF0D96946CD
:1005C000204604F098F994F858308DF80730042B41
:1005D00025D8022B2ED2012B31D194F85830FF2B85
:1005E00031D0012B06D06A460021204604F0A1F844
:1005F000064690B900221146204604F0B5F806469A
:1006000010BB10220021684605F0E9FC236A5B78E4
:100610002B71236A5B68AB602C6000251FE0052B03
:100620000DD1002004F0A4FA0028D6D0FF2384F8CE
:100630005830D2E76946204604F03CF9CDE7FF2365
:1006400084F85830C9E7FEE70326E6E7C5F1010361
:100650002C2202FB0343186A05F0D8F90135012D5D
:10066000F4D9304604B070BD3C1D00203C21002070
:1006700008B501460148FFF785FF08BDDC180020DA
:100680002DE9F04383B00F4615461C46DDF828805F
:10069000536A53F830601A68B61A013853F830308C
:1006A000A3EB02092368012B1BD03A463146404692
:1006B00004F0B4F9019700964B464246414628465D
:1006C000FFF734FF2146284604F075F9236801330B
:1006D000236018B10C4A13680133136003B0BDE8FE
:1006E000F083E368022B04D10B99284604F09AF9B1
:1006F000DBE74146284604F095F922464146284664
:1007000004F0C8F9F0E700BF3C2600202DE9F043D3
:1007100083B00E4615461C46526A52F830101368D4
:10072000A1EB0308013852F83070FF1A2A6D52F815
:1007300030101368A1EB03092379012B05D023792D
:10074000022B1CD003B0BDE8F083324639460A982C
:1007500004F064F9019600974B460A9A0B992846D3
:10076000FFF7E4FE2146284604F025F90223237111
:100770000028E4D0114A136801331360DFE73246E2
:1007800049460B9804F04AF90196CDF8009043468B
:100790000B9A0A992846FFF7C9FE2146284604F01D
:1007A0000AF9236801332360012323710028C9D08B
:1007B000024A136801331360C4E700BF3C260020DF
:1007C00070B582B015461E46002B36D0436A5C6871
:1007D0007379012B11D0022B17D00024002003F0D5
:1007E000CEFE01A9C0B200F0B1FE68B301240198A9
:1007F00005F00CF9204602B070BD01BB32681C4BFD
:100800001B689A42EAD80024E8E73368012B07D92D
:10081000174A1268934203D899B900240121DDE7F1
:10082000012B01D00024D9E701B100240129D5D141
:100830003379022BD2D10021D0E70024CEE7002467
:10084000CCE700242146C9E720232A462146019807
:1008500005F0DDF8044640B9002EC8D02A68054BE3
:100860009A42C4D04FF0FF34C1E70124BFE700BF74
:10087000000000203DB8F396F0B583B00C464968FF
:1008800001F0FF21104DA94204D106461746226807
:10089000012A01D003B0F0BD6946184604F0FDFA04
:1008A0009DF80030032BF5D13946304604F0BAF8F4
:1008B000384604F029FBA168384604F03EFB384670
:1008C00000F0B8F8E6E700BF00010004F0B585B01D
:1008D00007460D460024354B1C60436A5E6834446D
:1008E00032490B6801330B609442F8D3284603F079
:1008F000A1FF70B1F86D04F054FABA6A013A00230E
:100900003344984201D9013AFAE7284B1B689342D5
:1009100014D203A9012000F019FE02A9022000F060
:1009200015FE0223029A29463846FFF7A5FF6B7988
:10093000012B06D002236B71012427E00123EB7108
:1009400032E01A4B1C6800E0013C8CB12A68174B5E
:100950001B689B1A01339C42F6D8029B0193039BB0
:1009600000932B463A4631462046FFF789FEEBE7D7
:1009700001232B60DEE7029B0193039B00932B4630
:100980003A4631462046FFF7C1FE0134074B1B684B
:10099000A34203D32B68A342F7D8ECE7039805F0F2
:1009A00035F8029805F032F805B0F0BD00000020DF
:1009B00008B51022034905F0D7FA08B1022008BD96
:1009C0000120FCE79882000070B586B00D46012337
:1009D000ADF80430002407E0286805F017F823E09C
:1009E000286805F013F80134012C1BD8294606AB02
:1009F000234413F8140C00F0A9FD0646A0B928689A
:100A00008168102302AA103905F001F80646002873
:100A1000E2D11022064902A805F0A6FA06460028EF
:100A2000DED101E04FF0FF36304606B070BD00BFAA
:100A30009882000008B581681023044A103905F037
:100A400005F800B908BD0120FCE700BF988200004E
:100A500030B585B002A9012004F01FFA00283ED16C
:100A60006946022004F019FA00283AD1002407E070
:100A70002B79042B29D09DF80A20934225D00134EC
:100A8000022C29D804EB4403174A02EB43059DF8D6
:100A9000081012F8130004F071F90028EFD09DF847
:100AA0000010687804F06AF90028E8D0AB78042BCD
:100AB00003D09DF80B209342E1D1EB78042BD7D0E3
:100AC0009DF803209342DAD1D2E76879831EDBB226
:100AD000022B02D9FF2000E0012005B030BDFF202D
:100AE000FBE7FF20F9E700BFA882000070B5A4B0C3
:100AF000202928D806460D460024144B1B68A34223
:100B00001CDD09A806F0FDFF002109A802F03CFC4D
:100B10000F4B03EBC4025268126853F8341009A853
:100B200006F0F5FF01A909A807F034F82A46314676
:100B300001A805F019FA18B10134DEE74FF0FF34CF
:100B4000204624B070BD4FF0FF34F9E78C820000DE
:100B5000908200002DE9F041D6B014461D465F9EFC
:100B600004965E9E039606AE02965D9E01965C9E7E
:100B7000009604F0F2F90646002840F08280609B5F
:100B800023B1202206A9184605F005FA0023009398
:100B90004FF6FF732A4621464EA804F0A1FA0646F6
:100BA00000286ED1074680464FF0FF341DE04FF01D
:100BB000FF341AE04FF0FF3417E04FF0FF34012705
:100BC00013E0BDF85231202B5FD10EAA559928466B
:100BD00004F01DFF00285BD120220EA906A805F015
:100BE000C3F9002856D14FF0010854AB0DF5A97296
:100BF00055A94EA804F0D9FA002840DB38DCBDF82E
:100C00005021102ADDD0012A21D0202AEDD1002C3C
:100C1000CDDB294B1B68A342CCDDBDF85231B3F5C7
:100C2000807F3FD10EAA5599284604F0F0FE002897
:100C30003BD1E4B20094BDF852310EAA202106A89F
:100C400000F0AEF80028B8D04FF0FF34CDE7BDF883
:100C50005231202B21D80EAA5599284604F0D7FEF0
:100C6000F0B99DF852110EA8FFF740FF0446BCE70B
:100C7000B8F1000F1CD027B94FF0FF3601E04FF05C
:100C8000FF36304656B0BDE8F0814FF0FF36F8E74A
:100C90000646F6E74FF0FF36F3E74FF0FF36F0E792
:100CA0000646EEE74FF0FF36EBE74FF0FF36E8E79A
:100CB0004FF0FF36E5E700BF8C82000070B5ADF560
:100CC0001C7D0E4619464368B3F5807F51D1202A1A
:100CD00052D141AA02F016FB054600284FD19DF8DB
:100CE0000332BC2B4ED10DF2E31109A804F0C6F972
:100CF0002B46DE2B07DC41AAD25C09A8C45C62400B
:100D0000C2540133F5E79DF8243003F07F038DF8DA
:100D10002430BD2D04DC09AB5B5DB3BB0135F8E7C6
:100D20009DF8E230012B35D181A806F0EAFE0021C2
:100D300081A802F029FB0822184981A806F0E7FEE5
:100D40002022314681A806F0E2FE20220DF1E301C7
:100D500081A806F0DCFE01A981A806F01BFF202275
:100D60000DF2E31101A805F0FFF880B14FF0FF305C
:100D70000DE04FF0FF300AE04FF0FF3007E04FF09A
:100D8000FF3004E04FF0FF3001E04FF0FF300DF591
:100D90001C7D70BD4FF0FF30F9E700BFBC82000042
:100DA0002DE9F043ADB006460F4690461D469DF82E
:100DB000D0900022114601A806F05DFE114C54F8B7
:100DC0003930009304EBC904626812681A4469461A
:100DD00001A804F001F9044610B9029BAB4206D009
:100DE00001A806F056FE20462DB0BDE8F08343462C
:100DF0003A46314601A8FFF761FF044601A806F014
:100E000048FEF0E790820000BFF36F8F72B60023B8
:100E100008E003F120010B4A4FF0FF3042F82100B7
:100E20000133DBB2072BF4D9002308E003F16001A2
:100E3000044A4FF0FF3042F821000133DBB2072BA8
:100E4000F4D9704700E100E02DE9F84F81468A4669
:100E500015469B460A9B002B05DD4FF001080A262C
:100E60000027214C13E001230A93F6E7B5FBF4F0C9
:100E700051463030C84708F101080127013EB5FB53
:100E8000F4F304FB1355194BA3FB0434E408092CB9
:100E900014D9002FEAD1AC42E8D90A9B9E42EDDC7E
:100EA000BBF1020FEAD8BBF1010F05D0202051465B
:100EB000C84708F10108E1E73020F8E7514605F19D
:100EC0003000C847BBF1030F01D0BDE8F88F0A9B83
:100ED000A3EB080808F1FF34B8F1000FF5DD514627
:100EE0002020C847A046F5E700CA9A3BCDCCCCCC21
:100EF000014B1860704700BF040000202DE9F0434B
:100F000083B080460F461646124B1B68984705462D
:100F1000002400E00134104B104A9B1AB4EB231F4D
:100F200014DA0E4800EB041043685B79002BF1D013
:100F300023010A4AD358D3F80490B9F1000FE9D03D
:100F400000963B462A464146C847E3E703B0BDE862
:100F5000F08300BF08000020708200005082000073
:100F600008B5044B044A1A604FF4004000F00EFA32
:100F700008BD00BF0800002023580000054B064AAA
:100F80009B1AB1EBD30F02D252F831007047002008
:100F9000704700BF508200003082000008B50B4B44
:100FA000C31A1B1101334268137143681960436807
:100FB00001225A71064B1B781BB1054B01221A7096
:100FC00008BD044803F090F9F7E700BF5082000025
:100FD000582C00209800002038B5154BBFF35B8FCC
:100FE00053E8002F511C43E800100028F8D1BFF34C
:100FF0005B8FDAB9002405E0042200212846FFF7C0
:10100000CDFF01340B4B0C4A9B1AB4EB231F0DDAB6
:10101000094D05EB04152B7B002BF2D02301064A6A
:10102000D3585B69002BE7D09847E5E738BD00BF90
:10103000402600207082000050820000104B1B7878
:1010400003B1704710B5FFF7C7FF002400E001347B
:101050000C4B0D4A9B1AB4EB231F0CDA0A4800EB29
:10106000041043685B79002BF1D02301064AD35862
:101070001B699847EBE7024B01221A7010BD00BFB5
:10108000592C002070820000508200000EB400B580
:1010900082B0014603AB53F8042B0193044804F0DB
:1010A0004EF9002002B05DF804EB03B0704700BFBA
:1010B00045580000F0B585B011F0440F05D01A4B2B
:1010C0001C6834B9002005B0F0BD1849FFF7DEFFF9
:1010D000F9E7174B1968B2FBF1F1B1FBF4F5154ACA
:1010E000A2FB0532D20A4FF4616606FB1256124B80
:1010F000A3FB06735B0904FB15114FF47A7505FB1E
:1011000001F1B1FBF4F707FB141105FB01F1B1FB91
:10111000F4F402940197C3EB0311A6EB8101009153
:101120000649FFF7B3FFCEE744260020D88300002E
:1011300048260020C5B3A29189888888E4830000EE
:1011400061B108B52AB1064A52F8232012B9054AFE
:1011500000E0044A0449FFF799FF08BD704700BF4B
:1011600060840000008400000884000011F0100F6B
:101170000BD108B511F0200F03D00449FFF786FF0B
:1011800008BD0349FFF782FFFAE770470C840000AF
:10119000108400002DE9F04105460F46164698469A
:1011A0000699FFF7E3FF0024444505DA2349284662
:1011B000FFF76CFF0134F7E7002409E01F492846D8
:1011C000FFF764FF0BE01E492846FFF75FFF01347D
:1011D0000F2C0CDC002C02DD14F0070FEED0B44213
:1011E000F1D23A5D17492846FFF750FFEFE716495D
:1011F0002846FFF74BFF002409E010492846FFF777
:1012000045FF0BE011492846FFF740FF01340F2C42
:1012100012DC002C02DD14F0070FEED0B44206D22F
:101220003A5DA2F120035E2BECD92E22EAE70349B6
:101230002846FFF72BFFE9E7BDE8F081388400007E
:101240001C8400001484000020840000248400001A
:10125000F8B5044616461D4649B9002786B1012354
:10126000079A934013F0100F16D10C4E09E00C4B67
:10127000079A53F822200B49FFF708FF0746EDE7CE
:10128000064E06992846FFF779FE0246314620466B
:10129000FFF7FCFE3844F8BD034EF2E72884000057
:1012A00074840000348400003084000070B584B081
:1012B00005461E46C1F3C203C1F3891011F00704AD
:1012C0000FD1089B32462946104804F038F894B9EB
:1012D000304604F0D1FA98B10D492846FFF7D6FE02
:1012E0000EE00290019300941346012209992846CA
:1012F00004F0E5FAE5E722460999284604F0D3FA16
:10130000284604F003FB04B070BD00BF4558000040
:101310003C8400002DE9F04784B007461D460C9E32
:101320000D9CDDF8388001F0070AC1F3C203C1F358
:10133000891102910193CDF800A013460122414684
:1013400004F0BDFA81462A460F493846FFF79EFE53
:1013500074B12546102C28BF1025CDF800804B46CF
:101360002A4631463846FFF715FF2E44641BEFE747
:1013700052464146384604F096FA384604F0C6FA1A
:1013800004B0BDE8F08700BF08840000074B0122CD
:101390001A60074B984205D94008044A13685B005D
:1013A0001360F6E7034B1860704700BF4826002023
:1013B00040420F004426002008B5034802F026FCF6
:1013C000024B586008BD00BF8884000054260020EE
:1013D00008B5024804F09AFA08BD00BFBC840000BA
:1013E00000B585B00F2002900798019006980090F4
:1013F0000248FFF78FFF05B05DF804FBBC840000D6
:1014000000B583B00F200190049800900248FFF7C8
:101410004DFF03B05DF804FBBC840000014B0122CA
:101420001A7070475B2C002008B518B9044B0022D5
:101430001A7008BD41F2883006F0ADFDF9E700BF33
:101440005B2C002038B504460A4B01221A700A4B67
:101450001B7803B938BD002000F0E8FA0028F9D065
:10146000044B1B78002BF5D0651E2046FFF7DCFFF0
:101470002C46F0E75B2C00205C2C0020F8B50646DB
:101480000D46042706E03846FFF7DCFF9CB90D4BFC
:101490001B7883B12A463146002000F02DFA04461D
:1014A0000028F0D1074B1B78002BEFD0013F3846C6
:1014B000FFF7BAFFEAE714B9024B1B7803B92C46D1
:1014C0002046F8BD5B2C002008B5034B01221A70A2
:1014D000024804F01BFA08BD5C2C0020F4840000D4
:1014E00000B585B00F2002900798019006980090F3
:1014F0000248FFF70FFF05B05DF804FBF48400001D
:1015000000B583B00F200190049800900248FFF7C7
:10151000CDFE03B05DF804FBF484000010B4044673
:101520000023084A12689A4209DD1A01064909682F
:1015300001EB03108A5CA24202D00133F1E70020E4
:1015400010BC7047648500000C000020084B1B682D
:101550003BB110B50C46FFF7E1FF28B12060002039
:1015600010BD6FF00C0070476FF00100F8E700BF8E
:101570000C00002000B58BB003AB0093024B04F0CD
:101580001EFA0BB05DF804FB8359000010B5044649
:101590000A2807D0074B1868E1B283685B68984750
:1015A000204610BD034B186883685B680D2198477F
:1015B000F0E700BF7826002010B5044C204600F06C
:1015C00085FC2046FFF794FC10BD00BF8D15000080
:1015D00008B5044802F01AFB034B1860FFF7ECFF54
:1015E000002008BD888400007826002010B5044C37
:1015F0002046FFF77DFC204600F068FC002010BD6F
:1016000005160000F0B583B007468DF807000226E6
:1016100006E0134B01221A701EE004F07CFA013E32
:10162000104D4FF0FF324FF0FF33284602F0A6FB7B
:1016300001220DF10701002000F0C2F904462846FE
:1016400002F026FC002CE4D1054B1B7823B1002EC0
:10165000E3D1034B00221A70384603B0F0BD00BF3F
:101660005D2C0020BC00002008B501214FF48070E3
:1016700004F05BFA28B100210A4804F07CFA437AAE
:1016800033B102214FF4827004F04FFA28B908BD3B
:101690000021044804F044FBF3E70121014804F071
:1016A0003FFBF4E73800002020F07F40014BC3F8F7
:1016B0004005704700100140014BD3F840057047CA
:1016C0000010014082B0044B00221A601B68019395
:1016D000019B02B0704700BF40110140024B4FF424
:1016E0008032C3F84423704700100140024B4FF48E
:1016F0008032C3F80823704700100140024B4FF4BA
:101700008032C3F80423704700100140014BD3F826
:10171000040570470010014038B5FFF7D3FFFFF70D
:10172000CBFF054D2C68214604F030FB04442C60AF
:1017300002F096FE38BD00BF9426002038B5FFF7B2
:10174000E5FF0446FFF7B8FF0546FFF7BBFF20465D
:10175000FFF7AAFFFFF7C2FF2146284604F016FB59
:10176000012805D0054B4FF40032C3F8802138BD65
:101770000F2006F010FCFFF7A5FFF3E700E100E003
:1017800038B5134802F042FAF0B1826812680121BC
:101790009047104D0024C5F80845FFF793FF0E4B06
:1017A0004FF40032C3F88021FFF7A8FF2246012141
:1017B000112000F0A9F9112000F096F90123074A41
:1017C00013602B60204638BD4FF0FF30FBE700BFB1
:1017D000688500000010014000E100E008100140B1
:1017E00038B5B0F1FF3F1ED0441E114B9C4201DCC6
:1017F000002C1BDD0E4B9C4200DD0E4CFFF786FFDC
:101800000D4B1D68294604F0C1FAB0F5000F00D356
:10181000002420440130B0F5000F00D305482844CF
:1018200004F0EAFA38BD00F50000DDE70024E5E742
:10183000FEFF7F00FFFF7F009426002010B54FF0D1
:101840002003EFF3118483F31188BFF36F8FFFF749
:101850005DFF044B196804F099FA84F31188BFF313
:101860006F8F10BD9426002038B54FF02003EFF3A2
:10187000118583F31188BFF36F8FFFF747FF054B87
:101880001C68214604F082FA204485F31188BFF3D6
:101890006F8F38BD9426002010B5114C03232361AF
:1018A0006361104AA261104BE3614FF480632362CD
:1018B0000023A3626362E36222660C4A626610221E
:1018C000A2662367E36663670949E01D04F039FBFC
:1018D0000849204604F035FB2023A37110BD00BF4A
:1018E00098260020C08500005027002040270020B7
:1018F000CC850000D08500002DE9F84304460E4653
:10190000154600EB40032D4A02EBC302936A576A67
:10191000BB424BD800EB4002284901EBC202D2F88F
:101920002080A8EB070909F1FF32954204D913443E
:101930009D4216D900203EE0DFF88080631C03EB57
:10194000430308EBC30358682A463146384404F081
:1019500022FB3D4404EB440408EBC404656201200F
:1019600029E0431C03EB4303144A02EBC30358680A
:101970004A463146384404F00EFBA7EB08077F19AE
:1019800007D104EB44040D4B03EBC4046762012050
:1019900011E0631C03EB4303084A02EBC3033A461E
:1019A00006EB0901586804F0F6FAEAE7DB1B013B95
:1019B000AB42C1D20020BDE8F88300BF98260020CA
:1019C000F8B50F461646184B451C05EB450503EBCD
:1019D000C50500EB400003EBC000C46A012C11D028
:1019E000022C1CD014B100242046F8BD284604F077
:1019F0000FFA8642F8D832463946284604F014FADF
:101A00003446F1E7284604F003FA3446864228BFFC
:101A1000044622463946284604F006FAE4E72846FA
:101A200004F024FA0446DFE798260020064B00EB7A
:101A3000400203EBC202926A00EB400003EBC000DD
:101A4000406A801A704700BF98260020094A9368B0
:101A5000D86609490968196708494B6843F08053FB
:101A60004B60002383F31188BFF36F8F9368186F67
:101A7000704700BF2C2C0020E087000000ED00E044
:101A80000F498A684FF030001044EFF3098C80E86A
:101A9000F01F202080F31188BFF36F8F094F4FF0A4
:101AA0000066CA698A603E60D06E0023D36680F308
:101AB000118802F1300090E8F01F8CF3098870471C
:101AC0002C2C002004ED00E01EF0040F0CBFEFF3FF
:101AD0000880EFF30980816911F8021C0229FFD008
:101AE00001B504F005FA01BD43B2002B08DB00F09C
:101AF0001F005B09012202FA00F0024A42F82300AB
:101B0000704700BF00E100E0013143B2002B08DB69
:101B10004901C9B203F1604303F5614383F800133F
:101B2000704700F00F004901C9B2014B19547047CA
:101B300014ED00E0014910220A60704710ED00E04A
:101B400030BFFFF7FDBF00BF08B50E4B0E4A22F0B5
:101B50007F029A60BFF34F8FBFF36F8FD3F8882057
:101B600022F47002C3F88820EFF3148323F00403F7
:101B700083F3148802F070F802F07AF800F022F98A
:101B800002F0B2F800ED00E00000000001B5EFF354
:101B90000580A0F110004FEAC0000449014409C9C2
:101BA0009847BDE80140024908470000B0800000A6
:101BB000C11D000004F033FA202080F3118808488A
:101BC0004FF40061401880F30988EFF3148002217C
:101BD000084380F31488BFF36F8FFFF7B5FF000051
:101BE00068540020EFF30880EFF30981724601B5D5
:101BF00000F094F801BD00BF10B514460F4B9A6A6F
:101C00009A6A9B6A13F0020F0BD00C4B5A6B9B6ABB
:101C100013F0800F05D021B1084A936A23F08003A6
:101C20009362064B9A6A9A6A9A6A9A6A42F0FF022B
:101C30009A6204F069F92070002010BD00ED00E008
:101C400010B51446124B9A6A9A6A9B6A13F4007F85
:101C50000BD00F4B9A6B9B6A13F4004F05D021B148
:101C60000B4A936A23F400439362094B9A6A9B6A76
:101C700013F4807F01D1064B9B6A054A936A43F4B3
:101C80007F43936204F040F92070002010BD00BF34
:101C900000ED00E0074B9A6A9A6A9A6A9A6A9A6A11
:101CA0009A6A9A6A6FEA02426FEA12429A620020C6
:101CB000704700BF00ED00E000230B70144BDA6AA0
:101CC00012F0020221D110B50446D86A10F080400B
:101CD00010D028331B7843B90E4B1B785BB90E4BE1
:101CE0001B889BB26BB9104604E00A4601212046CE
:101CF000FFF782FF10BD0A4601212046FFF7A0FF33
:101D0000F8E72046FFF7C6FFF4E70020704700BF62
:101D100000ED00E029ED00E02AED00E070B58AB0AA
:101D20000C46224B5968C1F30801002383F3118844
:101D3000BFF36F8F02F07F43B3F17F4F15D102F0F5
:101D40000C03082B14D012F0080F0BD000260DF155
:101D50002702204604F0DAF805469DF8273053B1F3
:101D60000AB070BD04460126F1E700263446EEE7CE
:101D700000263446EBE72022214601A804F00BF9A7
:101D80004EB1089BC3F308025AB96FEA53236FEAB6
:101D90004323089305E0089B23F4FF7323F001031A
:101DA000089301A9284604F09FF8D9E700ED00E068
:101DB000024A536943F010035361704700ED00E09D
:101DC000704700BF002206E002F00F01094B0B44F0
:101DD0002021197601322F2A0ADC53B2002BF3DBC3
:101DE00003F1604303F56143202183F80013F1E719
:101DF000704700BFFCEC00E038B504464FF020030C
:101E0000EFF3118583F31188BFF36F8F02F046F96A
:101E10000A4B9B68A34203D0284605F0D3FF38BD88
:101E2000074B5B68C3F308032BB1054A536843F0C3
:101E300080535360F0E72846FFF708FE2C2C002063
:101E400000ED00E0064A90600B6823F01F03034397
:101E500043F01003D3608B6843F0010313617047B4
:101E600090ED00E0034B05225A60BFF34F8FBFF3A4
:101E70006F8F704790ED00E0BFF35F8F014B002242
:101E80005A60704790ED00E038B50E4B1D68082D84
:101E900015D8FFF7F1FF0024A5420AD9094B59686C
:101EA00004EB4402930019442046FFF7CBFF0134B2
:101EB000F2E7054B1D70FFF7D5FF002038BD4FF04E
:101EC000FF30FBE7EC8500005E2C0020014B186022
:101ED000704700BF100000204FF02003EFF3118285
:101EE00083F31188BFF36F8F01230649C1F8403592
:101EF0004FF08041C1F8783582F31188BFF36F8FBE
:101F00000020704700E0014030B108B58001034B6C
:101F100043F00103984708BD704700BF708200007E
:101F20000023072B42D8F0B482B003F5A272214CF3
:101F300054F8222012F0030F08D00133DBB2072B34
:101F4000F3D96FF0120002B0F0BC704703F1400209
:101F5000920094B2174E03F5A27556F8252022F48C
:101F60004F3222F4407246F8252056F825700202BE
:101F700002F47C52090401F440310A433A4346F822
:101F8000252004F1804202F5C04200201060126852
:101F90000192019A56F8252042F0010246F82520C8
:101FA000012202FA03F3C6F80433CCE76FF0120003
:101FB000704700BF0060004010B4134BD3F80443D7
:101FC000E4B2002300E00133072B1BD803F5A27213
:101FD0000D4951F82220C2F305229042F3D124FA90
:101FE00003F212F0010FEED00A4603F5A27051F889
:101FF000201021F0010142F82010012101FA03F321
:10200000C2F8083310BC70470060004070B50D4640
:10201000C66843681B7A01F01F0444EA4314204653
:10202000FFF7CAFF1F2C26D904F01F00244A00F531
:10203000E07152F8213023F4403342F82130F36844
:10204000EB4013F0010F36D03369EB4013F0010F72
:1020500033D0B369EB4013F0010F17D0F369EB40B5
:1020600013F0010F0BD1736923FA05F515F0010F79
:102070000AD0012104E020464FF0A042D7E7032117
:102080002046FFF74DFF17E00221F9E7716921FAB9
:1020900005F515F0010F0CD1032100F5E07052F8A1
:1020A000203023F4403343EA014342F8203000203B
:1020B00002E00221F1E7002070BD0020FCE700BF34
:1020C00000030050F0B443685F68374B1340374C4F
:1020D000A34227D012D8062B26D004D9B3F5801FEF
:1020E00009D1012416E00BB3022B01D1042411E025
:1020F0006FF0150053E06FF0150050E02C4CA34238
:1021000016D0B3F5A00F01D1032403E0B3F5800F7F
:1021100047D1022412F0100F0CD112F0200F27D05B
:10212000012508E00724F5E70624F3E70024F1E79A
:102130000524EFE70325C2F3402312F4807F0CBF90
:102140000126002612F4007F06D012F4006F11D091
:1021500001228A40C7F808254268127A01F01F015F
:1021600041EA42111F290DD901F01F01114A0BE06C
:102170000025E0E712F4806FEED001228A40C7F814
:102180000C25E9E74FF0A04243EA460343EA850302
:1021900043EA042301F5E07142F821300020F0BC4D
:1021A00070476FF01500FAE70600F0000600100017
:1021B000020040000003005070B5C46845682E7AE4
:1021C00001F01F0545EA4615B2F5A03F2DD0B2F546
:1021D000005F3CD0E56801268E403543E560B2F5EE
:1021E000005F3AD0256901268E4035432561B2F55E
:1021F000A03F38D0A26901258D4022EA0502A261E4
:10220000B3F5C02F34D0E26901258D4022EA0502E2
:10221000E261B3F5802F30D0636901228A4023EA5E
:1022200002036361FFF7F2FE70BD1F2D0CD905F0AC
:102230001F05144E05F5E07556F8255015F0010FF1
:10224000C5D06FF02200EFE74FF0A046F2E7E56857
:1022500001268E4025EA0605C0E7256901268E4045
:1022600025EA0605C2E7A26901258D402A43C6E793
:10227000E26901258D402A43CAE7636901228A4049
:102280001343CEE700030050F0B4C66847683369D3
:10229000F2681A40B369F1690B4322EA0302012193
:1022A000002012E04FF0020C1EE04FF0A04503F5B5
:1022B000E07355F8234024F4403444EA0C4445F8D4
:1022C000234022EA0102013049009AB11142FAD0BA
:1022D0003C7A00F01F0343EA44137469C44014F0CD
:1022E000010FDFD14FF0030C1F2BDED903F01F03CA
:1022F000014DDCE7F0BC704700030050F0B4C36848
:1023000047681A69D9680A409969D869014322EA7D
:1023100001027968D1F810155869484022EA000096
:10232000012100240DE04FF0A04603F5E07356F8BC
:10233000235025F4403546F8235022EA01020134A7
:10234000490062B10A42FAD03D7A04F01F0343EA21
:1023500045131F2BE7D903F01F03024EE5E7F0BC3E
:10236000704700BF0003005008B50B4B1B780BB142
:10237000002008BD084B01221A700022052106200A
:10238000FFF7C2FB0620FFF7AFFB044B4FF0004204
:10239000C3F80423ECE700BF5F2C0020006000407E
:1023A000F0B585B00023029303934A4B1C680CB927
:1023B000002111E0484D2846FFF7A0FF029005F1EB
:1023C0001000FFF79BFF0390424B00221A601B682E
:1023D0000093009BECE7013107292FD801F140035E
:1023E0009B009AB201238B403C48D0F8040303427F
:1023F000F1D002F1804303F5C0431B68002BEAD003
:1024000001F5A273354850F82300C0F34033C0F300
:102410000420012505FA00F004AD05EB830353F811
:10242000085C054343F8085C02F1804303F5C043B0
:1024300000221A601B680193019BCCE7029E2EB913
:10244000039E06BB002C3BD105B0F0BD224BDF68DC
:10245000796819B10D4649B10D6807E00D4605E0F0
:102460007DB12B4605B12B6829461D460029E7D0D2
:102470008A6832403B691A42F2D04B681648984746
:10248000EEE72B46F0E7144BDF69796819B10D468A
:1024900049B10D6807E00D4605E07DB12B4605B159
:1024A0002B6829461D460029CCD08A6832403B69FA
:1024B0001A42F2D04B680A489847EEE72B46F0E7FD
:1024C000054C2046FFF7E0FE04F11000FFF7DCFEAC
:1024D000BAE700BF7C610040680000200060004057
:1024E00078000020034BD3F8003413F0010FF9D02B
:1024F000704700BF00E00140024B0B6001231360F6
:10250000704700BF902B002010B503F040FF034C34
:10251000206003F038FF6060002010BD902B002089
:10252000054B1B6823B9054B1B781BB10120704775
:1025300001207047002070471C210040602C0020C3
:1025400082B0054A0023136012680192019A034A7F
:10255000137002B0704700BF1C210040602C0020A7
:10256000B1F5164F6DD03BD8B1F5165F6BD00AD9D7
:10257000B1F5E14F72D025D947F6122399422CD1FB
:102580004FF4000313E0B1F5966F5ED007D9B1F5B3
:10259000166F60D0B1F5965F11D13A4B07E0B1F5F7
:1025A000967F55D0B1F5167F06D14FF41C33364ACD
:1025B000C2F82435002070476FF0150070476FF0A7
:1025C00015007047B1F5615F4AD0B1F5964F01D162
:1025D0002E4BECE76FF0150070476FF01500704759
:1025E000B1F5613F3FD009D9B1F5612F42D01DD976
:1025F000274B994243D14FF08053D8E7B1F5963F2E
:1026000033D004D9B1F5E13F0DD1224BCFE74DF6E0
:10261000C02399422BD0B1F5614F01D11E4BC6E7C3
:102620006FF0150070476FF0150070471B4B994213
:1026300022D0B1F5E12F01D1194BB8E76FF01500A9
:102640007047184BB3E7184BB1E74FF49E23AEE742
:102650004FF4A033ABE74FF41D23A8E7134BA6E7D5
:102660004FF46C13A3E7124BA1E7124B9FE74FF413
:1026700065039CE7104B9AE74FF0806397E76FF094
:102680001500704700B013000020004000A04E006D
:1026900040420F0000E0D70100F0EB0090D00300B3
:1026A00000705F0700509D000050270000F075008B
:1026B00000B0AF0300903A0100D0BE0E094B1B687A
:1026C00063B182B0074B002018601B680193019B27
:1026D000054BD3F818350B7002B070474FF0FF3040
:1026E000704700BF0821004000200040024BD3F893
:1026F0008004C3F8800470470020004030B583B0E8
:1027000005460C464B79012B06D0032B11D06FF0F8
:102710002203184603B030BD00238DF80630A3799C
:10272000032B39D1E37943B1012B10D06FF0220391
:10273000EFE710238DF80630F1E700238DF8043021
:1027400023795BB1022B23D06FF02203E1E76B68A2
:102750001B7823B301238DF80430F1E700238DF8B3
:10276000053021682846FFF7FBFE0346D0B99DF8E7
:1027700005109DF806009DF8042001430A430B490B
:10278000C1F86C25EA6894E8030082E80300C0E71A
:102790000E238DF80530E4E76FF02203B9E76FF000
:1027A0002203B6E76FF02203B3E700BF002000402A
:1027B000F8B50E461546002427462B1B002B0BDDD3
:1027C000FFF7AEFE40B1FFF7BBFE631C345D03486C
:1027D000C0F81C45DCB2EFE73846F8BD00200040E9
:1027E00010B483B000231846D41A002C0FDD094C16
:1027F000246864B1074800240460006801900198CF
:10280000581C054CD4F81845CC54C3B2EBE703B0C0
:1028100010BC70470821004000200040024B0422F9
:10282000C3F80423704700BF00200040024B04227D
:10283000C3F80823704700BF00200040024B18680F
:10284000003818BF0120704708210040024B4FF4A8
:102850000072C3F80423704700200040024B4FF47D
:102860000072C3F8082370470020004010B50446EA
:102870000D4BD3F8043313F0800F07D10A4BD3F874
:10288000043313F0040F07D1002010BDFFF748FEFA
:102890000028F3D00120F8E72046FFF7CFFF0028FB
:1028A000F3D00120F1E700BF00200040024B196087
:1028B000024B1A60704700BF982B00209C2B002011
:1028C00000B583B0084B1B682BB1074B00221A6080
:1028D0001B680193019B054B1B6813B1044A1068E8
:1028E000984703B05DF804FB24210040982B00209A
:1028F0009C2B002008B5054B8022C3F808230C331D
:1029000001221A6005F0E7F908BD00BF0020004071
:1029100008B505F0DFF90D4B01221A60083B802253
:10292000C3F804234FF02002EFF3118382F31188E0
:10293000BFF36F8F064A12781AB1064A0421C2F813
:10294000001183F31188BFF36F8F08BD082000408A
:10295000602C002000E100E038B50C4605F015FBC6
:10296000C0B96425194B0122BFF35B8F53E8001FE8
:10297000002903D143E800200028F7D1BFF35B8F83
:102980000BD02120002101F07DFC013D15F0FF0559
:10299000E8D102E00D4B01221A60FFF7D1FD0C4B8C
:1029A00001221A60083BC3F81C454FF47A74FFF704
:1029B000B7FD20B9012003F0B5FC013CF7D1054B70
:1029C00001221A60014B00221A6038BDA02B0020A2
:1029D000082000400C20004030B583B04FF0A043E9
:1029E0004022C3F808250324C3F818470021C3F880
:1029F0002017184A0825C2F814550625C2F80C55A8
:102A00002025C3F80855C3F81447C3F81C1705233D
:102A1000C2F808350723C2F81035C168FFF76EFE0B
:102A2000044610B1204603B030BD0A4B0422C3F85F
:102A30000025094900220A600968019101990121D4
:102A40001960064B19700220FFF75EF80220FFF7AD
:102A50004BF8E7E70020004008210040602C0020F0
:102A60000D4B1A68B2F1FF3F05D00C4B1B68082ACA
:102A700008D0002070470A4B1A7808331B68C3F34C
:102A80000313F4E7032B03D8DFE803F00404040482
:102A90000020704701207047300100103401001001
:102AA000E00F00F00D4B1A68B2F1FF3F05D00C4B60
:102AB0001B68082A08D0002070470A4B1A78083390
:102AC0001B68C3F30313F4E7032B03D8DFE803F019
:102AD00004040404002070470120704730010010F6
:102AE00034010010E00F00F0064B1B68064A126824
:102AF000082B01D0002070470AB100207047012048
:102B0000704700BF3001001034010010064B1B68F5
:102B1000064A1268082B01D0002070470AB1002035
:102B200070470120704700BF3001001034010010D1
:102B3000064B1B68064A1268082B01D0002070471C
:102B40000AB1002070470120704700BF300100101B
:102B500034010010064B1B68064A1268082B01D08E
:102B6000002070470AB1002070470120704700BF65
:102B700030010010340100100D4B1A68B2F1FF3F14
:102B800005D00C4B1B68082A08D0002070470A4B60
:102B90001A7808331B68C3F30313F4E7032B03D835
:102BA000DFE803F0040404040020704701207047AC
:102BB0003001001034010010E00F00F0014B024A18
:102BC0001A6070471C0000200090D00308B5FFF782
:102BD00047FF40B14FF080430022C3F80C21C3F8F7
:102BE0001021C3F83825FFF75DFF002846D04FF0CD
:102BF0008052D2F804145B4BC3F82015D2F80814A5
:102C0000C3F82415D2F80C14C3F82815D2F8101400
:102C1000C3F82C15D2F81414C3F83015D2F81814D0
:102C2000C3F83415D2F81C14C3F84015D2F8201498
:102C3000C3F84415D2F82414C3F84815D2F8281460
:102C4000C3F84C15D2F82C14C3F85015D2F8301430
:102C5000C3F85415D2F83414C3F86015D2F83814F8
:102C6000C3F86415D2F83C14C3F86815D2F84014C0
:102C7000C3F86C15D2F84424C3F87025FFF734FF6D
:102C800010B1394B394A1A60FFF740FF18B1384B81
:102C9000FB22C3F81825FFF74BFF48B135490B68F5
:102CA00023F00F03344A126802F00F0213430B6043
:102CB000FFF750FF18B1314B4FF400721A60FFF765
:102CC0005BFF60B14FF08043D3F8003413F0010F85
:102CD00005D04FF080436FF00102C3F800244FF09D
:102CE0001023D3F80032002B08DB4FF01023D3F869
:102CF0000432002B02DBFFF761FF08BD204B0122ED
:102D0000C3F804251E4BD3F80034002BFAD04FF043
:102D100010231222C3F80022194BD3F80034002BE1
:102D2000FAD04FF010231222C3F80422144BD3F828
:102D30000034002BFAD0124B0022C3F80425104BAC
:102D4000D3F80034002BFAD0BFF34F8F0D49CA6877
:102D500002F4E0620C4B1343CB60BFF34F8F00BF14
:102D6000FDE700BF00C000408C56004048810300D2
:102D700000F00040E40E004058020010409602406F
:102D800000E0014000ED00E00400FA05024B0022E3
:102D9000C3F80425704700BF00E00140024B012248
:102DA000C3F80425704700BF00E00140024B022237
:102DB000C3F80425704700BF00E00140044BD3F87E
:102DC000003413F0010FF9D00160BFF35F8F70473B
:102DD00000E0014010B5044603F0B9FA08B908480C
:102DE00010BDFFF7E3FF074BC3F80845054BD3F8C9
:102DF000003413F0010FF9D0FFF7C8FF0248EFE7E6
:102E00000A00AD0B00E001400000AD0B0268124B60
:102E10009A4215D1C269A3F11023A3F1EF139A428C
:102E200010D18368012B0FD8C36813B10269934294
:102E30000CD0436963B1826993420BD00020704784
:102E40000120704701207047012070470120704722
:102E5000002070470120704755AA00FF70B5114B44
:102E60009D68B5B12846FFF7D1FF064698B9EB68D3
:102E700013B10126304670BD2C69002CFAD02046D3
:102E8000FFF7C4FF48B9E368AB4208D1254624697F
:102E9000F3E70126EEE70126ECE70126EAE7012643
:102EA000E8E700BFA42B0020002800F0928038B58E
:102EB0000546484B1B68002B6CD0464A9268002A96
:102EC00068D0834204D8434A52681344834203D8EB
:102ED000414B1B6801209847A5F120042046FFF7CD
:102EE00095FF18B13C4B1B680120984755F8183CDA
:102EF000012B03D0384B1B6801209847002345F86D
:102F0000183C55F8143CCBB19A68002A43D155F8C7
:102F10001C2C59680A4420325A6055F8143C55F864
:102F2000102C1A6155F8145C2B6903B1DD60202266
:102F30000021204603F053F823462C4625691DB393
:102F4000AA680ABB6B6862681344203363602B690C
:102F5000236163690BB323B3A2699A61A3690BB1BF
:102F600062695A616B696361AA69A261EBB19C6194
:102F7000A36903B15C61236903B1DC6020220021F5
:102F8000284603F02CF82B4693B1124B1B6913F023
:102F9000020F15D138BD0023D0E7A269002ADAD18B
:102FA000E0E7A2690B4BDA60D8E70A4BDC60DFE7A9
:102FB000084BDB68A36103B15C61064BDC60E4E7AE
:102FC000FFF74CFF0028E5D0034B1B680120984712
:102FD000E0E77047A42B00202400002070B54F4B81
:102FE000DC681D68002D5AD09D68002D57D001FB6C
:102FF00000F6002800F08880002900F08780B6FBEA
:10300000F0F0884240F0848016F1040F00F28280D4
:1030100016F0030F08D026F00305043534B16368B9
:10302000AB4203D2A469F9E73546F7E7002C73D029
:10303000A3681BB13A4B1B68012098476268521B7A
:10304000232A2ED905F120016318203A5A60002264
:103050009A60DC6022691A61324860503249D96155
:1030600002B1D36062695A61A1699961002A3FD0B7
:1030700093619A6902B153610122A2606560236184
:1030800000236361A361254B1B6913F0010F32D14B
:1030900004F1200532460021284602F0A0FF284610
:1030A00070BD0123A3606369ABB1A2699A61A36992
:1030B0000BB162695A6100236361A361174B1B69FD
:1030C00013F0010F0BD104F12005324600212846F0
:1030D00002F085FFE3E7A269104BDA60E7E7FFF74C
:1030E000BDFE0028EFD00E4B1B6801209847EAE791
:1030F0000A4AD360BDE7FFF7B1FE0028C8D0084BED
:103100001B6801209847C3E70025C8E70025C6E7EC
:103110000025C4E70025C2E72546C0E7A42B002010
:103120002400002055AA00FF669911EE38B5054627
:103130000C4614220021134802F051FF1249134893
:1031400000F038F8232C1CD915F0030304D01C44DC
:10315000043CC3F104031D4422460021284602F02A
:103160003EFF084B1D605C609D60203C6C609A686F
:10317000074911609A68A1F11021A1F1EF11D16105
:10318000DA6038BDA42B0020A92E0000DD2F00003E
:1031900055AA00FF08B5024B1B68984708BD00BF41
:1031A0002000002008B5024B1B68984708BD00BFEF
:1031B00028000020024B1860024B19600020704765
:1031C000200000202800002031B108B50A46034B3A
:1031D0001B680021984708BD704700BF2C000020E5
:1031E000F8B504460D46476800F10806304603F07E
:1031F00055FC874251D16368B3F5807F4FD80021D9
:10320000304603F04BFE00282ADD0021304603F053
:103210001DFC28B3CDB104F12C060021304603F08B
:103220003DFE00281EDD0021304603F00FFCC8B132
:1032300004F138060021304603F030FE002811DD8D
:103240000021304603F002FC60B1002104F11400BB
:1032500003F024FE002824DD35B9ADB92846F8BDB9
:10326000124DFBE7114DF9E7002104F1440003F092
:1032700015FE002806DD002104F1500003F00EFECB
:103280000028EADC094DE9E7002104F15C0003F0C5
:1032900005FE002807DD0025E0E7044DDEE7034DCD
:1032A000DCE7024DDAE7014DD8E700BF80BFFFFF42
:1032B00070B5044600221146FFF792FFE0B90646BA
:1032C00004F10805284603F0D2FB7F2816D91434F0
:1032D0000021204603F0BAFB60B1204603F0C7FB93
:1032E000012807D92946204603F090FD002801DA7D
:1032F000304670BD024EFBE7014EF9E7004EF7E79E
:1033000000BEFFFFF0B587B004460D46164600220A
:103310001146FFF765FF98BB03A803F006FB626840
:10332000294603A803F0C0FB054630B103A803F00B
:1033300002FB15BB284607B0F0BD04F1080529467D
:1033400003A803F063FD002802DB6FF00305EDE73F
:10335000676804F1680300932B4604F1140203A983
:10336000084604F0FEF805460028DFD13A4631460B
:1033700003A803F0C8FB0546D8E7A5F58545D9E7BE
:10338000004DD7E780BFFFFF0023036043600B467B
:10339000B9B9194A8260194AC260194A0261194AC8
:1033A0004261194A8261194AC261194A026202F1F4
:1033B0007452A2F52302A2F6924242628366002072
:1033C0007047144A8260144AC26002F1794202F5E1
:1033D000740202F501620261104A4261104A826180
:1033E00002F1D14202F5C01202F51E62C2610D4A1D
:1033F00002620D4A4262E1E767E6096A85AE67BB91
:1034000072F36E3C3AF54FA57F520E518C68059BC6
:10341000ABD9831FD89E05C107D57C3639590EF725
:10342000310BC0FFA78FF964A44FFABE2DE9F04F0E
:10343000D1B00790002306E09A1C50F8222008AC77
:1034400044F823200133072BF6D900220F2A11D884
:1034500011F8224001EB820043781B0443EA046325
:10346000847843EA0423C078034310A840F822304C
:103470000132EBE74FF0000E42E10F9B0C9E4FEA4A
:10348000F62181EAB61181EA766119440E9C0D9805
:1034900084EA0003334063401944DFF8348758F866
:1034A0002E3019440DF1400C5CF82E301944089D63
:1034B0004FEA753A8AEAB50A8AEAB55A099F05EAD7
:1034C00007030A9A45EA070902EA090943EA0903D8
:1034D0009A440B9B01EB030951444FEAF92383EA19
:1034E000B91383EA79631C4486EA000309EA0303FB
:1034F00043401C440EF1010A58F82A301C445CF881
:103500002A301C444FEA713383EAB10383EAB15392
:1035100005EA010A45EA010B07EA0B0B4AEA0B0A26
:10352000534422441C444FEAF22383EAB21383EA51
:103530007263184486EA09031340734018440EF17D
:10354000020A58F82A3018445CF82A3018444FEA26
:10355000743383EAB40383EAB45301EA040A41EA08
:10356000040B05EA0B0B4AEA0B0A534407441844C0
:103570004FEAF72383EAB71383EA77631E4489EAA5
:1035800002033B4089EA03031E440EF1030A58F884
:103590002A301E445CF82A301E444FEA703383EA16
:1035A000B00383EAB05304EA000A44EA000B01EADC
:1035B0000B0B4AEA0B0A534435441E444FEAF523E9
:1035C00083EAB51383EA7563994482EA07032B40C3
:1035D000534099440EF1040A58F82A304B445CF8E1
:1035E0002A904B444FEA763989EAB60989EAB659F6
:1035F00000EA060A40EA060B04EA0B0B4AEA0B0A49
:10360000D14419440F914B440B934FEAF12989EAB5
:10361000B11989EA71694A4487EA050901EA090989
:1036200087EA090991440EF1050A58F82A204A440C
:103630005CF82A904A444FEA733A8AEAB30A8AEA63
:10364000B35A06EA030946EA030B00EA0B0B49EA00
:103650000B09CA4404EB0209CDF8389052440A928F
:103660004FEAF92484EAB91484EA7964274485EAA4
:10367000010409EA04046C403C440EF1060A58F8BF
:103680002A703C445CF82A703C444FEA723787EA5F
:10369000B20787EAB25703EA020A43EA020B06EAD4
:1036A0000B0B4AEA0B0A574420440D903C44099402
:1036B0004FEAF02787EAB01787EA70673D4481EA4E
:1036C000090900EA090981EA090129440EF1070004
:1036D00058F8205029445CF8200001444FEA743027
:1036E00080EAB40080EAB45002EA040522431340A1
:1036F0002B4303440E440C960B4408930EF1080E22
:10370000BEF10F0F7FF6B9AE10263F2E00F24D82AC
:103710000F9A0C9B4FEAF32787EAB31787EA736780
:103720003A440E980D9D80EA05071F4047403A44F1
:10373000DFF89CB45BF826701744B31E1A4610AB32
:10374000049253F822204FEAF24484EA724484EA55
:103750009224F21F53F822201444A6F10F0A53F8C2
:103760002AC04FEABC4282EAFC1282EADC0214441C
:10377000A6F1100253F82220224443F826203A44AE
:1037800008994FEA713C8CEAB10C8CEAB15E099F52
:103790003C460C400A990091089941EA070C0099AF
:1037A00001EA0C0C44EA0C0CF4440B9C14446244F3
:1037B0004FEAF42888EAB41888EA746880440C99BF
:1037C00081EA050904EA090985EA0909C844711C66
:1037D0005BF821008044701E059053F820004FEAEA
:1037E000F04C8CEA704C8CEA902CB01F53F82000FF
:1037F0008444A6F10E0E53F82E904FEAB94080EAA9
:10380000F91080EAD900604453F82A9048440291A4
:1038100043F8210008EB00094FEA723888EAB20841
:1038200088EAB258089901EA020041EA020C0197BD
:1038300007EA0C0C40EA0C0CC444009800EB0908A1
:10384000E1444FEAF82080EAB81080EA7860054445
:103850000C9981EA040008EA000048400544B01CC5
:1038600001465BF82000054453F826004FEAF04C6F
:103870008CEA704C8CEA902C701F53F82000844422
:10388000A6F10D0A53F82A004FEAB04053F82A7007
:1038900080EAF71080EAD700604453F82EC06044F5
:1038A000039143F8210005444FEA793C8CEAB90CB6
:1038B0008CEAB95C02EA090042EA090E089901EAB9
:1038C0000E0E40EA0E008444019F07EB050E05EB47
:1038D0000C0700974FEAFE2080EABE1080EA7E6067
:1038E0000C990D1884EA08010EEA0101614068187C
:1038F000F71C5BF827100144029D53F825004FEA9E
:10390000F04585EA704585EA9025301F53F8200080
:1039100005440195A6F10C0C53F82C004FEAB04079
:1039200053F82C5080EAF51080EAD500019D284418
:1039300053F82A502844069743F82700014400987A
:103940004FEA7035074685EAB00585EAB05509EAC1
:10395000000049EA070A02EA0A0A40EA0A000544A6
:10396000089800EB010A294401914FEAFA2585EAFB
:10397000BA1585EA7A652C4488EA0E050AEA050537
:1039800088EA05052544341D02945BF824000544AB
:10399000039953F821404FEAF44080EA744080EAEA
:1039A0009420F41E53F824402044A6F10B0753F84A
:1039B00027104FEAB14484EAF11484EAD1040444A4
:1039C00053F82C002044029943F821000544019942
:1039D0004FEA713C8CEAB10C8CEAB15C0098044669
:1039E0000C4001460198084309EA00002043604466
:1039F0002A440F9228440B904FEAF22C8CEAB21C16
:103A00008CEA726CC4448EEA0A08039202EA08083F
:103A10008EEA0808C444741D21465BF82440A4447F
:103A2000069D53F825504FEAF54484EA754484EA2C
:103A30009524049A53F822502C44A6F10A0853F80E
:103A400028204FEAB24585EAF21585EAD2052544D9
:103A500053F827402C44049143F8214064444FEA32
:103A6000703787EAB00787EAB057019901EA000585
:103A700041EA000C009901EA0C0C45EA0C052F44C0
:103A800009EB040CCDF838C03C440A944FEAFC27FB
:103A900087EABC1787EA7C677744039D8AEA050EAC
:103AA0000CEA0E0E8AEA0E0E774406F106095BF860
:103AB00029502F44029D53F825504FEAF54E8EEAC7
:103AC000754E8EEA952E059A53F82250AE44A6F113
:103AD0000902029253F8225029464FEAB54585EA79
:103AE000F11585EAD105754453F828E0754443F88B
:103AF00029502F444FEA743585EAB40585EAB45558
:103B000000EA040940EA040E019A02EA0E0E49EAAC
:103B10000E09A9440099CD190D954F4409974FEA14
:103B2000F52E8EEAB51E8EEA756ED644039A82EAA9
:103B30000C0C05EA0C0C82EA0C02724406F1070830
:103B40005BF8285002EB050E049953F821504FEA18
:103B5000F54282EA754282EA952253F826100A4419
:103B6000A6F1080553F825C04FEABC4585EAFC15C7
:103B700085EADC052A44029D53F825502A4443F87F
:103B8000282072444FEA773383EAB70383EAB753B6
:103B900004EA070527433840284318440199114493
:103BA0000C91104408900836AFE50023079809E00F
:103BB00008AA52F82340991C50F82120224440F8CA
:103BC00021200133072BF3D9002051B0BDE8F08F3D
:103BD000CC86000070B506460B4B53F8204000E041
:103BE0000834731C084A52F82330A3420AD9656886
:103BF0002368284698470028F2D0002DF0D00023F3
:103C0000AB60EDE770BD00BFCC87000038B505465E
:103C10000F4C00E010340F4B9C4206D0A368002BE1
:103C2000F8D02368AB42F5D110E0094C00E0103425
:103C3000084B9C4209D0A368002BF8D02168284685
:103C400002F088F90028F2D100E00024204638BDB7
:103C5000380000209800002008B50348034A121AD3
:103C6000002102F0BCF908BDD0000020642C002027
:103C700008B50648064A121A064902F08CF9064AA7
:103C80000649074802F087F908BD00BF0000002080
:103C9000D0000020208800000000000020880000E4
:103CA0000000002008B50B4B01221A700220FFF71C
:103CB00091FF094A09490A4801F0E0FC0320FFF797
:103CC00089FFFCF797FB074A137B23F0010313736B
:103CD00008BD00BF612C00202C840000E487000098
:103CE000F4870000B82B002008B5FDF739F9184B10
:103CF00083F30888174C636943F400736361E0231E
:103D000084F822300025E57725766576A576636A06
:103D100043F4E0236362FEF74BF8FDF70BFF4FF02F
:103D2000FF33A362E3622846FFF754FF0120FFF749
:103D300051FF2A4629462846FFF7B4FF4FF02002DC
:103D4000EFF3118382F31188BFF36F8FFEE700BF9B
:103D5000685C002000ED00E010B5064C0020064B2A
:103D60009C4206D2204603F0E1FF002801DB1C3410
:103D7000F5E710BD98000020980000202DE9F043E1
:103D800083B004461D464FF02003EFF3118783F301
:103D90001188BFF36F8FC16899B900294FD13A4B91
:103DA0009B6893F90E3023610131E160364B9B68CB
:103DB000A36087F31188BFF36F8F002003B0BDE8C5
:103DC000F08316468268304B9B689A42E5D055EAEC
:103DD00006010CBF4FF001084FF0000831D092F9F6
:103DE0000E90494693F90E0003F0B7FF81452FDC92
:103DF0004FF000090096019522463946234800F00D
:103E0000D9F90028DAD04FF02003EFF3118583F3BE
:103E10001188BFF36F8F23689C421FD0F3B12169D3
:103E200093F90E0003F099FF0146204603F09EFF30
:103E3000B0B9B9F1000F15D04FF0010812E02369B5
:103E4000B1E787F31188BFF36F8F6FF00F00B5E70D
:103E50000146204603F08AFF8146CBE72169E4E76B
:103E60004FF00108B8F1000F06D185F31188BFF3B8
:103E70006F8F6FF00A00A1E72946044803F08FFF17
:103E80006FF00A009AE700BF2C2C00202C2C002099
:103E900038B5836883B304461A4A926893422ED198
:103EA000C368012B05D0013BC36003F099FF0020DC
:103EB00038BD4FF02003EFF3118583F31188BFF372
:103EC0006F8F016903F052FF204604F023F8A060D1
:103ED00058B190F90E3023610023036703F088FF87
:103EE0002946094803F05BFFDFE70023E36085F321
:103EF0001188BFF36F8FD8E76FF01500D8E74FF048
:103F0000FF30D5E72C2C00202C2C002038B5B3F145
:103F1000FF3F08BFB2F1FF3F00D138BD0249183062
:103F200000F026FAF9E700BF1D7E00000A4B83422D
:103F300008D04A680B6813604A685A6000230B6017
:103F40004B607047203B9B688B42F2D14B7B13F058
:103F50001F0FEED0F5E700BF4C2C002038B504460B
:103F60000E4D05F1200003F03CFFAA68537B13F0CF
:103F7000200F02D043F00803537348B15CB9537B60
:103F800013F01F0F07D183692BB9044BDA6104E0EA
:103F9000024BD868F2E7014BD86138BD2C2C0020C9
:103FA00038B50546437B13F01F0F05D183690BB16C
:103FB000002302E0012300E000230BB3154B53F86C
:103FC000204F9C4224D064B12146284603F0DDFEF8
:103FD000B8B934B10F4B5B6A9C4202D02468002C04
:103FE000F1D10C4B03F120022A605A6A6A60156015
:103FF0005D626B7B63F07F036B730020FFF7AEFFA6
:1040000038BD63686B602C6063681D606560F0E7B5
:104010000024D8E72C2C002038B50446183003F0D3
:10402000DFFF00234FF02002EFF3118582F31188A8
:10403000BFF36F8F10E0637B43F010036373154B86
:104040009868A04214BF00200120FFF787FF85F386
:104050001188BFF36F8F012363B994F90D30002BE2
:10406000E9DA21460C48FFF761FF637B03F07F0329
:104070006373E0E7074B9B68A34200D038BD4FF065
:104080002003EFF3118083F31188BFF36F8F03F0E8
:1040900099FEF3E72C2C00204C2C002070B505462F
:1040A000836D03B1984705F1180003F099FF0023D1
:1040B0004FF02002EFF3118682F31188BFF36F8F68
:1040C0001FE0012227E029462A48FFF72FFF6B7BDC
:1040D00003F07F036B7324E013F0020F29D028460E
:1040E00003F04FFE2946FFF721FF6B7B23F002030D
:1040F0006B730023AB601CE086F31188BFF36F8FF6
:1041000001231A46002B34D16B7B13F01F0F02D111
:10411000A9690029D5D012F0010FDDD013F0800F6E
:10412000D1D1154B9868A84214BF00200120FFF799
:1041300015FF6B7B43F008036B7305F12803AC6A32
:10414000A342D9D0002CD7D004F1180003F048FFC7
:10415000204603F016FE2146FFF7E8FE637B23F0BE
:10416000020363730023A36023672046FFF718FF51
:10417000E3E770BD4C2C00202C2C002010B5044629
:1041800090F90D30002B08DB084B9868A04214BF53
:1041900000200120FFF7E2FE10BD01460448FFF7B2
:1041A000C5FE637B03F07F036373EDE72C2C0020D7
:1041B0004C2C002010B50C461146DDE902230448C2
:1041C000806803F086FE2046FDF740FC10BD00BF6E
:1041D0002C2C00202DE9F84304460F4600234FF015
:1041E0002002EFF3118682F31188BFF36F8F984698
:1041F00008E012F0010811D1A77386F31188BFF30C
:104200006F8F01231A46002B36D1637B13F01F0FEB
:10421000EFD1A369002BECD10122EAE7184D05F19B
:10422000200921464846FFF781FEA7732D6A4D45B8
:1042300020D065B12946204603F0A7FD98B935B1D5
:104240000F4B5B6A9D4202D02D68002DF1D10C4BC3
:1042500003F1200222605A6A626014605C620120ED
:10426000FFF77CFEC9E76B68636025606B681C60C4
:104270006C60F4E70025DCE74046BDE8F88300BF4A
:104280002C2C002038B5B1F1FF3F08BFB0F1FF3F43
:104290001AD003F078FD0446C5176901430141EACD
:1042A000D062181A62EB05039A0042EA907281000C
:1042B0001346081945EB0303DA0042EA5072C100C5
:1042C000C80B40EA424038BD034B9868FFF7A4FE94
:1042D0004FF0FF30F7E700BF2C2C0020014B98680F
:1042E000704700BF2C2C002038B504464FF0200347
:1042F000EFF3118583F31188BFF36F8F03F00AFE8C
:1043000040B10022026703F073FD2946064803F01E
:1043100046FD38BDA368E268934203D001221344EE
:10432000A360F2E70022FAE7542C0020034B186840
:10433000984200D070470020FCE700BF300000200A
:1043400030B1044A5268904201D0006870470020A2
:10435000704700BF3000002008B5044B1B680BB14C
:10436000002008BDFDF76AFAFBE700BF542C0020CF
:104370002DE9F04704460D46B3F1FF3F08BFB2F107
:10438000FF3F66D012F1010843F100096FF001030D
:10439000B3EB08064FF0FF3A6AEB0907002E77F1FE
:1043A000000310DAE5604646B8F1010F79F1000329
:1043B0001CDB00234FF02002EFF3118582F31188FC
:1043C000BFF36F8F26E0FFF7C7FF234BD3E900232E
:1043D000121843EBE07318EB020249EB03016FF094
:1043E0000103B3EB02086AEB0109DBE70126E0E712
:1043F000D31A836043686360206043681C60446034
:10440000D0B1FFF793FF84421DD085F31188BFF32D
:104410006F8F0123EBB9FFF79FFF3044A060FFF7D8
:1044200085FF0028ECD08268A3689A42E0DC9B1AE2
:10443000A360FFF785FFF4E7084B23605A686260CA
:1044400014605C60DDE703F0BCFD0021FDF7C8F9F6
:10445000DBE7BDE8F08700BFD0000020300000207F
:1044600070B54FF02003EFF3118583F31188BFF38C
:104470006F8F234B1860FFF759FF044620B3826803
:104480001F4B1B689A421FDC1E4ED6E900018018A4
:1044900041EBE271C6E900019B1A194A136000233F
:1044A000A360204603F07BFD85F31188BFF36F8F77
:1044B000E368204698474FF02003EFF3118583F31C
:1044C0001188BFF36F8FD6E724B1A3680C4A126836
:1044D0009B1AA3600B480A490C68D0E90023121903
:1044E00043EBE473C0E9002300240C6003F069FD92
:1044F0002146FDF775F985F31188BFF36F8F70BD05
:10450000542C0020D000002010B5064C064B9C42D5
:1045100006D2A2686168204603F080FD1434F5E7F6
:10452000002010BD980000209800002070B582B0D7
:10453000044601A9007900F01CF8A568019B1D4400
:1045400023681C892E194FF02002EFF3118382F3A8
:104550001188BFF36F8F01F018FCFCF755FC2B5945
:1045600083F30888002383F314887368984702B0A4
:1045700070BD08B9086070476FF01500704719B139
:10458000012903D102207047012070476FF0150008
:104590007047FF20704770B516461D4601F037FA88
:1045A00050B90021A94205D2745CFF2C06D101311B
:1045B000C9B2F7E7012001E04FF0FF3070BD08B548
:1045C000006A01F0A1FA08BD2DE9F04182B006466B
:1045D0000C4617460020FFF7D2FF01A9C0B2FCF736
:1045E000B5FF40B14FF00108019801F00FFA4046C5
:1045F00002B0BDE8F0812C2303FB04631D89DB6856
:104600001D4404236A462946019801F000FA8046B9
:1046100040BB2C2101FB04646489BDF8002046F6F0
:1046200008139A420CD004BBBDF8002046F60713CD
:104630009A421DD12544BDF802301D443D60D3E7A8
:10464000BDF802108C4202D04FF00308CCE70423DF
:104650006A462944019801F0DAF90028E4D04FF0C5
:104660000108C1E74FF00108BEE74FF00308BBE7C0
:104670004FF00308B8E7F0B583B007460C460020BA
:10468000FFF77DFF01A9C0B2FCF760FFD0B9064675
:104690000198FFF77EFF0546019801F0B7F92C213C
:1046A00001FB04710023032B05D8CA5C954207D196
:1046B0000133DBB2F7E701233BB1304603B0F0BD75
:1046C0000023F9E74FF0FF36F7E74FF0FF36F4E746
:1046D00010B582B00346084680220192012905D018
:1046E00002290ED11A6D03F1540402E05A6A03F153
:1046F000280401A9FCF73EFF08B9019B236002B022
:1047000010BD0120FBE738B504460121FFF7E0FFAB
:1047100010B10125284638BD02212046FFF7D8FFF9
:10472000054608B10125F5E72046FFF748FFE0659B
:10473000F0E7F8B505460F4616460024012C10DCBC
:1047400033462C2202FB045221462846FCF738F857
:10475000034608B90134F1E7002C03DD17B9002343
:1047600000E000231846F8BD2DE9F04182B006466E
:104770000C4615460020FFF702FF01A9C0B2FCF766
:10478000E5FE28B14FF0FF35284602B0BDE8F081C4
:104790002C2000FB046721463046FFF76CFFE0B198
:1047A0003B6913F0100F1DD1DDF8048041463846F7
:1047B000FBF74CFE10B954B901250FE02B464246D9
:1047C00039463046FBF762FE054638B1F3E70198FB
:1047D0008268002101F06AF9EEE70125019801F0F5
:1047E00015F9D1E70125F9E770B505460E46002019
:1047F000FCF72EF90446022805D0042803D003282C
:1048000001D0204670BD324601212846FFF7ACFF9B
:10481000012803D00028F4D00524F2E70446F0E78D
:10482000002383718360C3600123437103600371BC
:10483000C37170474379012B01D000207047036892
:10484000012B01D0002070470379012B01D00020FB
:1048500070470120704738B504460D46FBF72EFE21
:104860000246EB7984F85830033BDBB2012B0CD9BC
:10487000EB79022B13D0042B11D0032B0FD094F81B
:104880005830FF2B15D0104638BD002000F070F9CD
:1048900002460028ECD0FF2384F85830E8E70020D7
:1048A00000F053F902460028E9D0FF2384F858307D
:1048B000E5E7FEE738B50546FBF700FE95F85840FA
:1048C000E31EDBB2012B0DD9022C03D0042C01D046
:1048D000032C06D1002000F038F910B1FF2385F831
:1048E000583038BD002000F043F90028ECD0FF24F8
:1048F00085F85840EAE738B504460D46FFF703FF50
:1049000018B1012384F8583038BD002211462046E2
:10491000FFF70FFF18B1012384F85830F4E7204661
:1049200000F0B6F918B9012384F85830ECE72846AE
:10493000FFF776FF2946204600F0CEF818B1012394
:1049400084F85830E0E72846FFF774FF80F0010153
:104950002A46C9B22046FFF7ECFE80B92846FFF789
:1049600069FF80B1EB79012B1AD02A46012120463C
:10497000FFF7FAFED8B1052384F85830C4E70123C5
:1049800084F85830C0E729462046FFF764FF2A46DE
:1049900000212046FFF7CDFE012384F85830B3E70D
:1049A00029462046FFF720FF84F85800ACE7EB7952
:1049B00084F85830A8E770B584B004460E4603A9C1
:1049C0000120FCF7C3FD30B10124039801F01EF86B
:1049D000204604B070BD039800F0F3F90546E16D80
:1049E000304600F03CF92C18039801F08DF805468C
:1049F0000398FFF7CEFD0146082201A801F0EFFA67
:104A000033798DF804302B4601AA2146039801F032
:104A10001DF804460028D8D00124D6E708B501F0D7
:104A200045F808BD2DE9F04706460F460021084627
:104A3000FFF7A5FD044601210020FFF7A0FD3B780C
:104A40009C4223D0984223D1012399462C2202FB79
:104A500003639C6A013CF06D00F0A3F980460025D9
:104A60002C2303FB09635B6A03EBC402D2F804A0A6
:104A700053F834101B685246C91A3846FFF7CEFF68
:104A8000013C5544A845EBD8BDE8F0870023DCE79E
:104A90000120F9E730B583B00C461546694602207F
:104AA00000F0FBF9E97901290DD19DF80330012BC4
:104AB0000ED0A968204600F040FA2046FBF7BAFF66
:104AC000002003B030BD0022204600F024FAECE7BD
:104AD000204600F019FAECE770B582B006460D46A4
:104AE00000F0F5F80446E86060B3022829D101A976
:104AF0000120FCF72BFD08B1012423E02A463146B2
:104B0000019800F055F8044618B1019800F07EFFB6
:104B100018E0019800F05EF9014601230DF103024F
:104B20000198FFF738FD012806D09DF8033003F007
:104B30000F03EB710446E8E701238DF803302046AC
:104B4000F3E70724204602B070BD10B582B001A97A
:104B50000120FCF7FBFC18B10124204602B010BD77
:104B6000019800F0CAF90446019800F04FFFF4E7FD
:104B700010B584B003A90120FCF7E8FC18B10124AA
:104B8000204604B010BD01A9039800F026F90446A0
:104B900060B99DF80730032B03D0039800F036FF6F
:104BA000EEE7039800F0B0F90446F6E70124F4E7D5
:104BB0002DE9F04782B006460D4692460146002098
:104BC00000F0F4F8041E42DBD5F85C90304600F0AB
:104BD000F8F880464FF0FF3700E02C46002C13DD3C
:104BE000651E5FFA89F101230DF1070205FB0181C2
:104BF0003046FFF7D0FC00282BDB0128EDD0B7F1C1
:104C0000FF3FEAD12746E8E7B7F1FF3F25D07F2FE6
:104C100009DC01238AF805301F44CAF800708AF8BD
:104C20000430002016E002238AF80530803F07EBAD
:104C3000D7735B100133CAF80030002F07F001076B
:104C4000B8BF7F4201378AF80470002002E00720D5
:104C500000E0012002B0BDE8F0870020FAE730B4A0
:104C60004379012B10D0022201FB02F4012B0DD05D
:104C7000CD010379013B0268013A02FB04F201FB1A
:104C80000321481930BC70470122EDE70025F0E709
:104C900010B4846A436D9C4212D1802C13D8002337
:104CA000A3420BD2426A02EBC3025168026D02EBCF
:104CB000C30252688A4208D10133F1E7012000E0C3
:104CC000002010BC70470020FBE70020F9E700B58A
:104CD00083B06946012000F0E0F89DF80030012B18
:104CE00003D0002003B05DF804FB9DF80230032BD5
:104CF00001D00020F6E70220F4E7012800D1704738
:104D00000220FCE72DE9F04383B0064688461746AB
:104D10001C4600F0F9FE082C20D80546082802D9C8
:104D20004FF0FF301CE03046FFF733FC8146A542D0
:104D300000D2254622463946684601F02CF92A1B46
:104D400049460DEB040001F04AF92B466A464146FC
:104D5000304600F07BFE18B1012001E04FF0FF303B
:104D600003B0BDE8F08300B583B08DF804200123C3
:104D700001AAFFF7C7FF03B05DF804FB04280AD0BF
:104D8000052803D1481E18BF01207047884214BF70
:104D90000020012070470120704700EB4000C00157
:104DA000704708B5FFF7F9FF303008BD0B78013BBD
:104DB000DBB2012B02D84FF4C07070474FF0FF30C8
:104DC000704710B5044600F09FFEFFF7EAFFA368A6
:104DD000181A10BD80682838704730B587B005466E
:104DE0000C468168102302AA1039FFF7D4FB002873
:104DF0004ADB01283CD1032323702846FFF7EAFF52
:104E0000014601230DF107022846FFF7C4FB0028E5
:104E10003DDB9DF8073003F00F0262701B09237120
:104E2000012801D0042A03D90123637000232371D0
:104E3000A9680123A21C20392846FFF7ACFB0028F3
:104E400027DB012819D0A078FFF757FFA070A968C9
:104E50000123E21C18392846FFF79DFB00281ADBC6
:104E600001280DD0E078FFF748FFE07000200CE04B
:104E700002A8FBF79DFD2070BFE70323A370E6E7C0
:104E80000323E370002000E0012007B030BD0120C3
:104E9000FBE70120F9E70120F7E710B582B00C46E7
:104EA00001A9C0B2FCF752FB18B10124204602B0A0
:104EB00010BD21460198FFF790FF0446019800F0CD
:104EC000A5FDF3E730B583B00C4601A9FBF77CFDE7
:104ED000054610B1284603B030BD019D2846FFF7B6
:104EE00079FF04232246A0F10801284600F08FFD37
:104EF0000546019800F08AFDECE708B581680122BB
:104F00002039FFF730FF08BD08B581680122183944
:104F1000FFF729FF08BD10B582B0044641EA02112F
:104F20008DF80710FFF756FF014601230DF1070228
:104F30002046FFF7E7FE02B010BD10B582B0044670
:104F40000191FFF747FF04230DEB0302A0F10801D5
:104F50002046FFF7D7FE02B010BD2DE9F0439DB00B
:104F600015469946249FDDF89480279C01A802F0FD
:104F7000C8FD002101A8FEF707FA14B1289B002BF9
:104F800006DC2B89EE6833446E891E44002513E04D
:104F90001A46214601A802F0BAFDF2E723463A4636
:104FA0002946484600F033FD034688B92246394673
:104FB00001A802F0ACFD2544B54204D2741B44455F
:104FC000ECD94446EAE7269901A802F0E3FD002364
:104FD00018461DB0BDE8F0832DE9F04184B00446C9
:104FE0000E461546302303AA2946304601F03BFA07
:104FF000A8BB3368039A1344AB4233D104F10807CA
:105000003A462946304601F041FA28BB04F114081B
:1050100042462946304601F039FAE8B9384601F0EF
:105020003DFD60603368AB421FD1CDF804800022A3
:10503000009213463946204602F0DEFCC0B92046F5
:10504000FEF736F90546B0B9384601F027FD606035
:10505000284604B0BDE8F0816FF00205F8E74FF094
:10506000FF35F5E76FF00105F2E76FF00305EFE7B5
:105070006FF00405ECE76FF00505E9E7F0B5A5B0C2
:1050800006460F4600230893DF2407E025462A46FC
:105090006946304600F07FFF2E44641B002C1DDD66
:1050A00009A802F02EFD002109A8FEF76DF92022C3
:1050B000394609A802F02BFD042208A909A802F02C
:1050C00026FD694609A802F065FD9DF823300133ED
:1050D0008DF823301F2CD9DD2025D8E725B0F0BD71
:1050E0002DE9F04383B000284AD00C461746994674
:1050F0000646002947D0002A48D00D89CB681D44B8
:1051000004230DEB03022946384600F080FC80465C
:1051100000283ED1BDF8042046F608139A421ED05E
:105120006389002B3BD1BDF8042046F607139A4251
:1051300038D134607760A6F808909DF82830B372B3
:1051400063892B44F36063892B44BDF80620134424
:10515000736104353561404603B0BDE8F08363896F
:10516000BDF806108B4217D104230DEB030229442E
:10517000384600F04CFC0028D5D04FF0FF38EAE765
:105180004FF0FF38E7E74FF0FF38E4E74FF0FF3824
:10519000E1E74FF0FF38DEE74FF0FF38DBE74FF095
:1051A000FF38D8E74FF0FF38D5E700284DD0F0B5ED
:1051B00083B00F4616461D4604460368002B48D0B0
:1051C00043680BBB4FF0FF313AE004230DEB0302C1
:1051D0002169606800F01BFC014600283CD1A37ADD
:1051E0001BB12269E3689A4239D223894FF6FF72D4
:1051F000934217D0BDF80420934213D0BDF80600A7
:1052000023691844043020612069636998421AD2E6
:1052100023685B89002BD8D0E3688342D5D1043062
:105220002061D2E715B1BDF804302B802369043327
:105230003B60BDF806303380226913440433236198
:10524000084603B0F0BD0121FAE74FF0FF310846F0
:1052500070474FF0FF31F3E74FF0FF31F0E70121E6
:10526000EEE70020704738B504460D464520A047BC
:1052700029465220A04729465220A04738BD2DE993
:10528000F04F83B081468A4690461D469DF83030E7
:10529000019300264FF0100B3746402407E0092801
:1052A0002AD9572351461844C84701360127032CF1
:1052B00033DD043CC4F12002A4F1200328FA04F0F9
:1052C00005FA02F2104325FA03F3184310F00F0019
:1052D000E5D1002FE3D1002CE1D00BF1FF33009397
:1052E0000D9B9B4516DC019B012B07D0019B022BDC
:1052F0000AD0DDF800B0DAE73023D3E7514630209A
:10530000C847DDF800B0D2E751462020C847DDF895
:1053100000B0CCE7DDF800B0C9E7019B032B02D059
:1053200003B0BDE8F08F0D9BC6EB430603E051468A
:105330002020C8472646741E002EF8DCF0E72DE931
:10534000F04F87B007460E46144605934FF000080D
:105350004FF0FF39C246454602E03146B8470134B6
:105360002078002800F0878145B92528F5D14FF035
:1053700000084FF0FF39C2460125F0E70246A0F1D0
:105380002503552B00F26981DFE813F06201670104
:105390006701670167016701670167016F016701C5
:1053A000670156005D005D005D005D005D005D0011
:1053B0005D005D005D0067016701670167016701CE
:1053C000670167016701670167016701670167019D
:1053D000670167016701670167016701670167018D
:1053E000670167016701670167016701670167017D
:1053F00067010C01670167016701670167016701C8
:1054000067016701670167015A018A006701670147
:10541000670170008A00670167017000670167011A
:1054200067010201670167013A016701CF00670167
:1054300067010C0167017000B9F1000F03DABAF1DE
:10544000000F00F01581B9F1000F0CDB09EB8909A1
:1054500002EB4909A9F13009BAF1000F7FF47FAFDF
:105460004FF0020A7BE7A2F13009F5E768280CD07B
:105470006C2810D0B8F1000F0BD031462520B8476A
:1054800031462078B847002569E7B8F1680FEFD1B9
:105490004820804663E7B8F16C0FEBD14C20F8E769
:1054A000B8F17A0F0AD0B8F16C0F17D0B8F14C0FE1
:1054B00019D0059B1A1D05921D6803E0059B1A1D56
:1054C00005921D68002D29DBCDF8009053462A4631
:1054D00031463846FBF7B8FC002540E7059B1A1D0E
:1054E00005921D68EEE7059B073323F0070303F1E0
:1054F000080205921D685B6815F10042029243F1B3
:1055000000030393DDE90223012B08BF002AD9D34E
:1055100031463846FFF7A7FE002520E731462D200B
:10552000B8476D4209F1FF39CEE7B8F17A0F0AD0DA
:10553000B8F16C0F14D0B8F14C0F16D0059B1A1DA2
:1055400005921A6803E0059B1A1D05921A68CDF8AA
:105550000090534631463846FBF776FC0025FEE6C0
:10556000059B1A1D05921A68F1E7059B073323F086
:10557000070303F108020592D3E90023012B08BFBA
:10558000002AE4D331463846FFF76DFE0025E6E6F3
:1055900031463020B84731467820B8474FF00809E7
:1055A0004FF0010A2378702B0BD0B8F16C0F17D095
:1055B000B8F14C0F1AD0059B1A1D05921A680023EA
:1055C00004E0059B1A1D05921A680023CDF804908B
:1055D000CDF800A031463846FFF751FE0025BEE663
:1055E000059B1A1D05921A680023EFE7059B0733F8
:1055F00023F0070303F1080205921A685B68E5E7E8
:10560000059B1A1D0592D3F800B05D4602E00135F6
:105610003146B84728780028F9D1BAF1030F01D0F4
:1056200000259CE6A5EB0B03A9EB030303E0314641
:105630002020B8472B465D1E002BF8DC00258EE6A7
:10564000059B1A1D059231461868B847002586E665
:1056500031462520B847002581E631462520B84748
:1056600031462078B847002579E64FF0030A76E600
:105670004FF0010A73E607B0BDE8F08F0FB400B534
:1056800083B004A951F8040B019100F0CEF803B0E7
:105690005DF804EB04B07047B1FA81F18068B0F5B1
:1056A000004F34BF0846481CC0F11F007047F8B5D2
:1056B00004460D460368CE008268B2F5004F25D33C
:1056C00053F83130E16819402046FFF7E5FF636881
:1056D00003EBC0035A68511C5960F2B9012303FA65
:1056E00000F2636913436361636843F830502368D1
:1056F0003344A268B2F5004F0BD39D6023681E446B
:10570000A368B3F5004F06D3F560F8BD33F8313028
:10571000D8E79D80F2E7F580F7E7636853F830003B
:1057200023684FEAC00C03EBC001A268B2F5004F3A
:105730001CD38F683344B2F5004F19D39F602168A2
:105740000E44A368B3F5004F14D3F060226802EB57
:10575000C702A368B3F5004F0ED3D5602368634436
:10576000A268B2F5004F09D39D60CEE78F88E1E7CC
:105770009F80E4E7F080E9E7D580EFE79D80C4E70C
:105780002DE9F0410646CF1D27F0070701EB02087F
:1057900028F00708A8EB07084FEAD80807603F6021
:1057A00007F118037B60C7F80880B8F5004F1FD3D6
:1057B0006FF00043FB6000247C6141463846FFF7F0
:1057C0006BFF431C23F0604303333B613568A968DA
:1057D0002846FFF761FFA0420DDB6B6803EBC403B3
:1057E00000225A6033685B6843F834200134EDE7E7
:1057F00047F6FF73DEE73A69A8EB02033968B86839
:10580000B0F5004F07D341F8323039693846FFF719
:105810004EFFBDE8F08121F83230F6E770470020F6
:10582000704708B5FCF720F808BD08B50A460146E0
:105830004FF00000FBF762FB08BD08B5FBF7CCFB9F
:10584000002008BD00B583B001900B684A6852681B
:10585000012101A89847002003B05DF804FBF8B5CA
:1058600007460D4614461E46324621462846B8478E
:105870000544241AF8D1F8BD0022037813B1013091
:105880001A46FAE70A2A14BF00200120704708B51B
:1058900013460122FBF754FC08BD08B5134600224D
:1058A000FBF74EFC08BD38B505460C4601F001017A
:1058B000FFF7F3FF21462846FBF758FC38BD2DE9DA
:1058C000F04383B0044615469DF8286001F00109B5
:1058D000C1F3C00811F0020713D1324649462046F1
:1058E000FFF7D5FF0196BDF8303000939DF82C30BE
:1058F0002A4641462046FBF7ABFC384403B0BDE8DE
:10590000F0831A46FBF7D6FB0746E6E710B50446D8
:1059100042685368126881680068FFF7A0FF6368F7
:1059200000221A6010BDF8B507460E461546002441
:10593000B44206D2395DAB685B68284698470134AB
:10594000F6E73046F8BD00684B6898420BD310B4B8
:105950008C682344984209D208694B69984209D25D
:10596000002010BC70470120107070470023137096
:105970000120F6E76FF00B038B6100231370012009
:10598000EFE770B582B005460C46CE680DF1070210
:10599000FFF7D9FF80B92B68616822695B1A46F866
:1059A0003230236906EBC3066B68736023690133E9
:1059B0002361012002B070BD9DF80700FAE7F8B539
:1059C0000D4617461E46069C2060FBF7A7FDB8B1A2
:1059D000436863608368A360E760002222612B68EC
:1059E0006361A261C068FEF711F960B122463146D9
:1059F00000F060FCA3690BB923692B60A069F8BDB6
:105A00006FF01500FBE76FF01200F8E77047F8B58C
:105A100004460D4617461E4683688B4204D372180F
:105A200093420ED2002300E0002363B1E068FEF74A
:105A3000EDF86168294483681C6833463A46A047FC
:105A4000F8BD0123F1E76FF01500F9E72DE9F84300
:105A500005460E4691461F4683688B4204D37A184A
:105A600093421ED2002300E00023E3B1E868FEF772
:105A7000CDF804468368DB6800219847804668B902
:105A800069683144A3685D683B464A462046A8479A
:105A90008046A368DB680121204698474046BDE860
:105AA000F8830123E1E76FF01508F7E72DE9F041EE
:105AB00005460E46174683688B4204D30A44934238
:105AC0001DD2002300E00023DBB1E868FEF79EF85A
:105AD00004468368DB6800219847804660B969689E
