:020000040000FA
:10000000D05A002029230000B75C000059230000CB
:10001000592300005923000059230000000000006C
:100020000000000000000000000000003D21000072
:100030005923000000000000F5200000E75B0000ED
:10004000E9220000E9220000E9220000E922000084
:10005000E9220000E9220000E9220000E922000074
:10006000E9220000E9220000E9220000E922000064
:10007000E9220000E9220000E9220000E922000054
:10008000E9220000E9220000E9220000E922000044
:10009000E9220000E9220000E9220000E922000034
:1000A000E9220000E9220000E9220000E922000024
:1000B000E9220000E9220000E9220000E922000014
:1000C000E9220000E9220000E9220000E922000004
:1000D000E9220000E9220000E9220000E9220000F4
:1000E000E9220000E9220000E9220000E9220000E4
:1000F000E9220000E9220000E9220000E9220000D4
:1001000053B94AB9002908BF00281CBF4FF0FF317E
:100110004FF0FF3000F06CB9ADF1080C6DE904CE82
:1001200000F006F8DDF804E0DDE9022304B07047D2
:100130002DE9F047089E0D4604468E46002B40F000
:1001400082808A42174646D9B2FA82F24AB1C2F197
:10015000200105FA02F320FA01F1974041EA030E6B
:1001600094404FEA1748230CBEFBF8FCB9B208FBD9
:100170001CEE43EA0E430CFB01F098420AD9FB182F
:100180000CF1FF3580F01681984240F21381ACF1FA
:10019000020C3B441B1AA4B2B3FBF8F008FB10336B
:1001A00044EA034400FB01F1A14209D93C1900F1E2
:1001B000FF3380F00181A14240F2FE8002383C44CE
:1001C000641A40EA0C4000211EB1D4400023C6E965
:1001D0000043BDE8F08702B9FFDEB2FA82F2002ADE
:1001E0004FD1CB1B4FEA174E1FFA87F80121B3FB03
:1001F000FEFC250C0EFB1C3345EA034508FB0CF303
:10020000AB4207D97D190CF1FF3002D2AB4200F2AC
:10021000E7808446ED1AA3B2B5FBFEF00EFB105545
:1002200043EA054408FB00F8A04507D93C1900F152
:10023000FF3302D2A04500F2D7801846A4EB080491
:1002400040EA0C40C0E78B4208D9002E00F0AF8096
:100250000021C6E900050846BDE8F087B3FA83F13E
:1002600000294BD1AB4202D3824200F2B780841AFC
:1002700065EB030301209E46002EAAD0C6E9004E7E
:10028000A7E7C2F1200C01FA02F3974020FA0CF024
:100290004FEA174E21FA0CFC1843BCFBFEF1050C8B
:1002A0000EFB11CC1FFA87F845EA0C4501FB08F359
:1002B000AB4204FA02F409D97D1901F1FF3C80F048
:1002C0008B80AB4240F2888002393D44EB1A85B204
:1002D000B3FBFEF00EFB103345EA034500FB08F3C9
:1002E000AB4207D97D1900F1FF3C71D2AB426FD907
:1002F00002383D44EB1A40EA014178E7C1F1200C95
:100300008B4022FA0CF71F4320FA0CF405FA01F394
:100310004FEA174E25FA0CF51C43230CB5FBFEF9EA
:100320001FFA87F80EFB195543EA054509FB08FA41
:10033000AA4502FA01F200FA01F308D97D1909F180
:10034000FF3047D2AA4545D9A9F102093D44A5EBA2
:100350000A05A4B2B5FBFEF00EFB105544EA0544B5
:1003600000FB08F8A04507D93C1900F1FF352DD254
:10037000A0452BD902383C4440EA0940A4EB0804CC
:10038000A0FB02894C45C6464D4619D316D05EB136
:10039000B3EB0E0264EB050404FA0CFCCA404CEA11
:1003A0000202CC40C6E900240021BDE8F0873146B6
:1003B00030460EE7AC46EDE6184601E74345E6D287
:1003C000B8EB020E69EB07050138E0E72846D3E7F2
:1003D00060468FE78146BAE7614677E708464BE714
:1003E000ACF1020C3D4415E702383C4426E700BF5F
:1003F000704700BF7FB5314B314AC3F80026314802
:10040000C3F804264921C3F80826C3F80C26C3F80C
:100410001026C3F81426C3F81826C3F81C2605F0C6
:10042000B9F800F07DF8284800F05EF828B9264AAF
:100430002648452105F0AEF8FEE701A800F0C6FC0D
:10044000234B1B68834204D02248452105F0A2F8C3
:10045000FEE7039A2048492105F09CF81F484921EE
:1004600005F098F84FF44041002002F015FD20B14E
:100470001B48452105F08EF8FEE79DF80800694607
:1004800000F03EF8009B039C1C44019B1D896619EB
:100490004FF02002EFF3118382F31188BFF36F8FC7
:1004A00005F0A3FB00F030FF635983F308887368FD
:1004B00098470C48452105F06DF8FEE70000014023
:1004C0003546526E7C81000095810000A8810000B5
:1004D00004020020C7810000EA81000019820000A8
:1004E0003E8200007182000010B5044C236813B9ED
:1004F00003F06CFE2060206810BD00BF00020020E9
:1005000008B5024638B105480023452105F042F8F8
:100510006FF0150008BD0860FCE700BF9482000082
:1005200002484FF4C05103F053B900BFB41100208A
:100530002DE9F04FF9B0DFF8F891DDF808B2D9F8FD
:100540000060DDE9844838A817461D4607F081F9A8
:10055000002138A803F04CFACDF80C903CB1B8F16A
:10056000000F04DD4246214638A807F076F97B8962
:10057000B7F808809844FB684FF000099844C845D4
:100580004BD80DA938A807F0A5F9869B23B12022E6
:100590000DA9184605F0BCFB002300932A464FF630
:1005A000FF73394607A804F03AFD0446002840F0DE
:1005B000B580DFF8809180464FF0FF370DF11603CC
:1005C00005AA06A907A804F076FD041EC0F2A680BD
:1005D00040F09780BDF816A0BAF1100F34D1BDF8E5
:1005E0001480B8F1200F40F097800699434638AA4E
:1005F000284605F0E7F90446002840F08F8042467F
:1006000038A90DA804F0CFFD0446474B1B68834270
:1006100040F084804FF00108D0E7839AA8EB0903EB
:100620009A4228BF1A461346924649465A462846D9
:1006300005F0C8F90446002870D15246594638A83A
:1006400007F00BF9D1449AE7BAF1010F36D1BDF8A2
:100650001430202B60D8069938AA284605F0B2F944
:10066000044600285AD19DF814A0BAF1200F03D9EE
:100670004FF0FF342746A1E7D9F800302B4F029303
:10068000029B9C42F4DA1DA807F0E3F800211DA8A4
:1006900003F0AEF97B6857F8081B1A681DA807F02D
:1006A000DCF815A91DA807F015F9524638A915A8B8
:1006B00005F01EFB0028DDD00134E1E7BAF1200F80
:1006C0007FF47CAF002F19DBD9F80030BB4215DD79
:1006D000BDF81430B3F5807F1ED1069938AA28469C
:1006E00005F070F90446C8B9FFB2BDF814300097A0
:1006F00038AA51460DA800F01FF806464FF0FF3704
:100700005CE7B8F1000F0DD0074B1B68B34201D076
:10071000039B1E68344601E04FF0FF34204679B059
:10072000BDE8F08F0124F9E7040200201C7E0000E0
:1007300000000020187E00002DE9F04F9146ADF535
:100740004B7D002298466B4B9DF850631D68074611
:100750008A4627A8114607F038F8674B53F8364009
:10076000029403EBC6038AAA5B6819680C44302321
:10077000214602A805F02AFD68BB029B8A9A134411
:100780009C4228D129AA214602A805F033FD10BBBE
:100790000DF1B00B5A46214602A805F02BFD064686
:1007A000C8B929A806F000F9029B28909C4212D1F2
:1007B000CDE9006B3346324629A927A806F0C1FFD0
:1007C00048B927A803F0B2F828B929A806F0ECF830
:1007D000804528900AD027A807F002F827A806F03D
:1007E000FFFF28460DF54B7DBDE8F08FB8F5807F03
:1007F00002D04FF0FF35F1E7BAF1200FF9D18AAA04
:10080000494627A803F0B6F804460028F1D19DF820
:100810002733BC2BEDD10DF5A4780390DF26454698
:100820000CA807F016F800210CA803F0E1F820222C
:100830000DF207310CA807F010F8042203A90CA848
:1008400007F00BF804A90CA807F044F81F2E9DF838
:100850000F30D4BFB1464FF02009013340464A461D
:1008600004A9A6EB09068DF80F3005F051FA002E09
:10087000C844D5DC28468AAE2A46DF23117816F80C
:1008800001CB013B81EA0C0102F8011BF6D12B7868
:1008900003F07F032B7010F8016B002EA9D10134F7
:1008A000BE2CF8D195F8BE30012BA2D10CA806F0D1
:1008B000D0FF31460CA803F09BF8104908220CA881
:1008C00006F0CBFF394620220CA806F0C6FF2022F6
:1008D0000DF207210CA806F0C0FF04A90CA806F031
:1008E000F9FF20220DF2073104A804F05CFC054654
:1008F00081E700BF000000201C7E0000BA820000DB
:100900002DE9F04186B00223DFF87080ADF80030A9
:100910000D466F46002617F8010B01A900F0A2FF53
:100920000446D8B901988168102302AA103905F04D
:1009300049F8044628B1019805F043F80EE0012675
:10094000E9E71022414602A805F0D2F950B101981A
:1009500005F037F8002EF2D04FF0FF34204606B0F5
:10096000BDE8F081019805F066FB0423A0F10801C1
:100970002A46019805F026F80446DCE7B87F000017
:100980002DE9F041384B88B0064600200D461C6822
:1009900004F03CFB06A9C0B200F064FF002857D168
:1009A000294604F033FB2C2407A9C0B204FB0564DC
:1009B00000F058FF002836D04FF02C0808FB05F84F
:1009C00006EB0807396911F0100137D14FF4807335
:1009D0000193264B00932246CDE90311069B029119
:1009E0000846FFF7A5FD0446214B56F80820069857
:1009F0009A420CD13A89FB68D1438B4207D8134401
:100A00008268934203D21B4B1B68A3421DD045B39F
:100A10008268002105F01CF8174A1848452104F0A7
:100A2000B9FD012411E0079805F041F80746079841
:100A300004F0C7FF631EE21C93420DD1002DF0D0DD
:100A40000699304604F0AFFC2C46069804F0B9FF36
:100A5000204608B0BDE8F08113F8011FB942EBD081
:100A6000AAE7074AD9E700BF00000020B42D002004
:100A70003DB8F39604020020C2820000D482000038
:100A8000CC82000073B50D46044600212846CDE90E
:100A9000001104F047FC30B3164E2268B24203D175
:100AA00001AA204604F0B6FBE36AB34204D16A46C9
:100AB0000121204604F0AEFBDDE90032934288BFFD
:100AC0000193019BAB60019A2946204600F020FB70
:100AD000094B1A68002A03DD0848572104F05AFD23
:100AE000002002B070BD05F10801FFF709FFAB68F7
:100AF0000193E8E73DB8F396680A0020FC82000005
:100B00002DE9F84FDFF878B01B4C1C4D8846914614
:100B10009A4600260B9B9E4201D300200FE00B9BC0
:100B2000174A9F1BB7F5806F28BF4FF480673B467D
:100B300006EB0A01404604F045FF10B10120BDE874
:100B4000F88F0A993B465A467118484604F057FFF9
:100B50000028F3D1C4F800563E44C4F80456C4F843
:100B60000856C4F80C56C4F81056C4F81456C4F805
:100B70001856C4F81C56CDE7000001403546526EA9
:100B8000B42900202DE9F043884B602285B004464B
:100B90000F4600211E6805F0E6F8854B63620021D0
:100BA000844B2365084604F031FA04F12001C0B2F9
:100BB00000F058FE0121002004F028FA04F14C0155
:100BC000C0B200F04FFE0546204604F083FB02460B
:100BD00030B179488022572104F0DCFC01238DE0FC
:100BE0000146204604F05EFB804618B1734800229F
:100BF0005721F1E7204600F0A3F90028EED068461F
:100C000004F087FB6946204604F021FC18B16C48CB
:100C100042465721E0E7684604F084FB80F001017A
:100C20006A46C9B2204604F03DFB02460028DDD1E9
:100C3000684604F077FB804660BB69462046FFF7B4
:100C400021FF9DF8073084F85830033B012B06D86C
:100C5000404604F049FC10B1FF2384F858309DF859
:100C60000730023B022B0BD8002004F02BFC38B1DC
:100C7000FF2384F858305348452104F08BFCFEE7ED
:100C800094F85830FF2BF6D06A460021204604F035
:100C900009FBA3E79DF80790B9F1010F23D1104696
:100CA00002F094F9831E022B80460DD84946204657
:100CB000FFF766FE444B1B68984205D001280CBF25
:100CC0004FF001084FF0050884F8588094F8583028
:100CD0008DF80730042B14D8012B18D82FD0FF2300
:100CE00084F858302BE001212046FFF749FE364BAF
:100CF0001B6898420CBF9DF80730052384F85830D4
:100D0000E4E7052BEBD1002004F0EEFB12E069468E
:100D10002046FFF7B7FE94F85830DA1E012A054640
:100D20000BD8002004F0E0FB05460028D7D10020B6
:100D300004F0C8FB054610B1D1E7022BF7D094F8B8
:100D40005830FF2B04D11F48452104F023FCFEE757
:100D5000012B06D06A460021204604F0A3FA05467E
:100D6000B8B900212046FFF70BFE0646DFF8588091
:100D7000D8F8003083420CD110220021684604F0DC
:100D8000F2FF236AD8F800605A783A715B68BB605A
:100D90003C60E06C04F015FE206A04F012FE002DA9
:100DA00014BF2846304605B0BDE8F083000000209F
:100DB00068020020680600202B8300006D8300007D
:100DC00099830000C38300000402002008B5014697
:100DD0000148FFF7D7FE08BD0802002073B516468C
:100DE0001C4633B3436A5D686379012B15D101BB9F
:100DF0001F4B22681B689A4298BF0025002004F010
:100E000005F901A9C0B200F02DFDF0B1012501984E
:100E100004F0D7FD284602B070BD022B09D123682B
:100E2000012B08D9124A1268934202D8B1FA81F113
:100E300049090025E2E7FCD10029DFD00129F8D1DA
:100E40002179023918BF0121F3E7294601982023AF
:100E5000324604F0B7FD05460028D7D1002CD6D085
:100E6000356804482D1A18BF4FF0FF35CFE700BF93
:100E7000040000203DB8F3962DE9F04F074685B0F9
:100E80000C4601460020164604F094F9051E51DB7D
:100E90003846E46D04F098F95FFA84F905F1FF38FB
:100EA00009FB08084FF0000A4FF0010B4FF0FF3428
:100EB0009DB9BAF1010F03DD2048452104F06AFB1A
:100EC000631C06D07F2C2ADC013440F2011334600D
:100ED000B380284605B0BDE8F08F6B1E00930DF17E
:100EE0000F0201234146384604F06CFD031E0193B6
:100EF00022DB01220DF10F01384605F0ADF8019B10
:100F000040B19B4501D00AF1010A009DA8EB0908F8
:100F10009B46CDE7B4F1FF3F08BF2C46F5E702231F
:100F2000803C7371631004F00104013301343360B9
:100F30003471CEE70725CCE70125CAE7CF8300004F
:100F400038B5826A446DA24208D0631C934205D032
:100F50001348572104F01EFB002038BD802A1CD9FD
:100F600010485721F6E7416A056D01EBC30105EB17
:100F7000C30549686D688D4202D00B485721E9E7E7
:100F80000133A342EFD19A4205D9426A02EBC3036F
:100F90005B689942F1D10120DFE700231946F0E7B1
:100FA000F28300002A8400005984000000B589B053
:100FB00004A9022005F083F89DF81020012A41D0F1
:100FC000254B2649032A18BF0B469DF81320029291
:100FD0009DF8122001929DF811202148009249218C
:100FE000204A04F0D7FA06A9062005F068F89DF813
:100FF0001820012A28D0184B1849032A18BF0B467D
:101000009DF81B2002929DF81A2001929DF819204C
:1010100000921348144A492104F0BCFA9DF810309C
:10102000012B13D19DF81230032B0FD19DF81830EE
:10103000012B0BD00D48492104F0ACFA022009B075
:101040005DF804FB0A4BC0E7094BD9E70948492181
:1010500004F0A0FA0020F2E78A84000090840000E7
:10106000A284000094840000E3840000F384000064
:10107000858400001285000070B5064618464B684E
:1010800014461D4A03F0FF23934286B00D462ED12D
:101090000B68012B2BD104A905F011F89DF8102045
:1010A000012A26D0154B1649032A18BF0B469DF876
:1010B000132002929DF8122001929DF811200092B7
:1010C0001048114A492104F065FA9DF81030032BAD
:1010D0000DD12146304604F066F9204604F0DFFFCA
:1010E000A968204604F087F8204601F011FF06B0F9
:1010F00070BD064BDBE700BF000100048A840000DE
:1011000090840000A2840000E38400008584000035
:101110002DE9F04F436A0C465E688BB0054601210D
:10112000002333449342084601F10101F9D3734F80
:101130003860204604F0F6F80397B8B1E86D04F083
:1011400034F8AB6A0022013B3244904201D9013BA2
:10115000FAE7039A12689A4208D36948572104F0C3
:1011600019FA0123E3710BB0BDE8F08F08A9022042
:1011700000F078FB09A9062000F074FB0623099A09
:1011800021462846FFF778FF6379012B08D1039B9E
:10119000DFF870B11F68039B1B68A7B901232360A8
:1011A0000223DFF86081637101270693039BDDF85A
:1011B00020901B689F424AD9484604F002FC0998D7
:1011C00004F0FFFBCFE7226801339B1A9F423CD813
:1011D0006B6ADDF82080196853F8370003EBC7030A
:1011E000012A53F8083CA0EB0109A3EB010A12D134
:1011F000E268099B022A0AD041462846049304F07B
:10120000D2F822464146284604F002F9049B1946CA
:10121000284604F0C8F832464946404604F0C1F872
:10122000534642464146CDE900962846FFF768FC02
:101230002146284604F083F823680133236020B157
:10124000DBF800300133CBF80030013FA3E723681F
:101250009F4250D36A6ADDF824A052F837100591F6
:10126000FB0011680491083B296DC8580968A0EB80
:10127000010B217901293CD1D158049B3246C91A6E
:101280004846079104F08DF8079900915B464A465D
:10129000514601962846FFF733FC2146284604F0C4
:1012A0004EF8069B237120B1D8F800300133C8F8FE
:1012B000003032465946504604F073F8DDE9042305
:1012C00049469B1ACDE900B652462846FFF718FC5E
:1012D0002146284604F033F82368013323604FF099
:1012E0000103237138B1D8F800300133C8F8003059
:1012F00001E00229DDD0013758E700BF04000020DB
:1013000029850000680A0020154B164901221A6041
:101310004FF0FF33C1F84833C1F8083301F5C0413D
:1013200004310A60C1F84433C1F8043301F598313F
:101330000A600D4AC2F84833C2F80833A2F50832F1
:101340000021C2F80015C2F8083302F51832C2F8BD
:101350000015C2F808334FF08042C2F808337047D6
:1013600004B0004000B00040004002400B68013370
:101370000B60014B1B68184708000020014B1860E8
:10138000704700BF0800002007B50B460021024649
:101390000191034801A900F0EBF803B05DF804FBEC
:1013A0006D1300002DE9F84FB0F8189019F00808F7
:1013B000044693460DD001290CBF49F0100949F0AD
:1013C0002009A0F818908BF31188BFF36F8FBDE848
:1013D000F88F09F00709022907D1204604F0E7F841
:1013E0000028F0D00128238B50D16769218B002F72
:1013F00015DA256821F00701C4E9008841F00101F0
:1014000021830026218B01F0070ACA4502D0A36878
:10141000002B5CD10DB9002E74D0002358E001F0F0
:1014200007035A1F012A20D821F00701062B25683F
:1014300089B2C4E900880CD1002D2B4638BF0023A7
:101440002BB1628B1B6801326283002BF8D141F013
:1014500002012183204604F0AAF806460028D1D0D4
:10146000238B43F020032383CBE7042B0CD121F003
:10147000070189B22183204604F099F80546002827
:10148000BFD041F0200121830025BAE7032809D10C
:10149000226923F00703166843F00603238300251F
:1014A0002F46AFE7042806D1226923F007035668C8
:1014B00043F00403F2E7052806D1226923F007036D
:1014C000966843F00503E9E700252E46E8E7012387
:1014D00041F0080121838BF31188BFF36F8F03BBA9
:1014E000002D33D116B121492046B0474FF02003DB
:1014F000EFF3118B83F31188BFF36F8F238B23F0EE
:1015000008032383238BDA0628D523F010032383D3
:101510000121B4F8189009F0070900297FF45BAFA6
:1015200051E7A1680029DBD00B68D1F804B0002B8B
:1015300038BF0023994652463B462046D847B9F16A
:10154000000FCDD0D9F800304946EEE729463B469A
:10155000524620462D6804F046F8C1E713F02001FA
:101560001EBF23F0200323830221D2E7135600007D
:101570002DE9F04F8DB0002406468B469A460B9419
:1015800002F1FF394FF0FF3527464FF000080AE01F
:10159000B8F1000F0FD1252800F03B815946B04724
:1015A0000B9A01320B9219F8010F0028F0D10B9819
:1015B0000DB0BDE8F08F7A280AD8622812D83028FA
:1015C00053D047D8252800F01E812D2800F028810F
:1015D00059462520B0470B9A99F8000001320B922A
:1015E000594611E1A0F16302172AF1D801A353F87B
:1015F00022F000BFF7170000A9160000D115000067
:10160000D1150000D11500008B160000A9160000AE
:10161000D1150000D11500008B160000D115000077
:10162000D1150000D115000033170000D1150000BE
:10163000D1150000D1170000D1150000A916000037
:10164000D1150000D115000033170000D11500009E
:101650008B16000039280DD95828B9D16C2C40F0D0
:10166000AB805AF8042B002392E0002D02DA002F01
:1016700000F0D88025EAE5750A2202FB0505002F57
:10168000A5F1300508BF02278DE7682803D1682C33
:1016900006D1482487E76C2802D16C2C00F0C48066
:1016A000002C95D104467EE77A2C06D1D04658F816
:1016B000042BD317752828D111E06C2CF6D04C2CB4
:1016C00006D10AF1070323F00708F8E80223F1E73F
:1016D0007528DAF800200AF1040815D10023F81E55
:1016E00018BF0120012F0CBF30212021CDE90101BD
:1016F0000DF12C0E0A200090CDE9035E59463046CC
:1017000004F0DCF8C24640E7D317002A73F1000169
:10171000E5DA59462D20CDE90623B047DDE9062359
:101720000B98524200F101000B9063EB4303013D23
:10173000D5E7702892D15AF8048B3C4B3C4AB8F15B
:10174000000F18BF134613F8010B0693594609936F
:10175000B0470B98069B01300B9018780028F2D107
:10176000B8F1000F11D16A1F032F7FF40EAF90461E
:10177000B8F1000F7FF709AF59462020B0470B9A08
:1017800001320B9208F1FF38F2E742460346023D70
:10179000F81E18BF0120012F0CBF30212021CDE9F8
:1017A00001010DF12C0E10200090CDE9035E594689
:1017B000304604F083F8E8E64C2C7FF452AF0AF18F
:1017C000070323F007039A465B685AF8082BDFE704
:1017D0005AF8048B43469C4613F8010B18B9ACEB3E
:1017E0000802AA1AC0E759460693B0470B98069B11
:1017F00001300B90EFE75AF8040B5946B0470B9BAA
:1018000001330B93C1E65946B0470B9A01320B9254
:10181000BBE6444647464FF0FF354FF00108C2E6AD
:101820000327C0E60127BEE64C24BCE6668600001E
:101830006C860000094B30B51D68094B02461C68D8
:1018400000239D4201DC002030BD190104EB031090
:10185000615C9142F8D00133F3E700BFC87E00001D
:101860000C000020084B1B6810B50C462BB1FFF78D
:10187000E1FF28B12060002010BD6FF00C00FBE7F5
:101880006FF00100F8E700BF0C00002030B589B010
:101890000C4615460190FFF7CDFFB8B1436802939F
:1018A00083682268C068CDE903350023CDE90623AB
:1018B000059304F066F860B1074901AA04F049FBFA
:1018C000079808B9059B236009B030BD6FF015007B
:1018D000FAE76FF01200F7E78759000008B50446F1
:1018E0004FF02002EFF3118382F31188BFF36F8F63
:1018F00004F07BF9204600F0DDFF034803F04AFEC8
:1019000000F086FCFCE700BF7586000010B5044CB3
:101910002046FFF733FD204600F0AEFF002010BD4B
:10192000251900002DE9F341DFF86080164E8DF88F
:101930000700044603254FF0FF334FF0FF324046C7
:1019400002F088FD01220DF10701002000F084FB68
:101950000746404602F0F6FD2FB1012333702046C2
:1019600002B0BDE8F0813378002BF8D0013D08D0FB
:1019700006F004F90028DED10021422002F0E8FF41
:10198000D9E73570EBE700BFB42E002050010020EE
:1019900070B504460D48231A9A100D4B5343DBB221
:1019A0000C255D4305F140030E461844402104F028
:1019B00090F8011E04DB074B2B445B68984700211D
:1019C00020463346BDE87040184700BF7C0A00201F
:1019D000B76DDBB6E07E00002DE9F0410F4C104DF5
:1019E000031B9B105D43EBB20C255D43074605F1DD
:1019F00040000E462044402104F084F8011E08DB1C
:101A0000084B2C44C4E90E36074B5B59BDE8F04146
:101A1000184738463346BDE8F04118477C0A002095
:101A2000B76DDBB66D5B0000E07E0000002270B594
:101A300001210446104600F0AFFB002000F08EFBB1
:101A40000F4801F02BFC0F4B984215D104F05CFBC2
:101A5000E6680D49304603F0F9FD00280BDB01254F
:101A60003564E468084904F11C0003F0EFFD002828
:101A700001DBE564002070BD6FF00400FBE700BFF0
:101A8000C11A00000000AD0BF87E000001460C23D7
:101A900009484B4370B5C418D4E90E5600224033B0
:101AA000A263184404F04CF82DB132462B4603488B
:101AB000BDE87040184770BD7C0A0020B0000020CF
:101AC00010B1012804D07047034B1B6C5B0701D198
:101AD000FFF7DCBF704700BF7C0A002008B54FF05D
:101AE0002003EFF3118183F31188BFF36F8F124A44
:101AF000136843F0020013F0010310600CD04FF0A4
:101B00008042D2F80C34D2F80C2413F0010303D035
:101B10000A4804F015F8012381F31188BFF36F8F91
:101B200023B1BDE808400020FFF7B0BFBDE8084082
:101B3000012001F0C3BB00BFCC0A0020BC0A00207A
:101B4000094BBFF35B8F53E8002F22F0020143E8FB
:101B500000100028F7D1BFF35B8FD30702D4012018
:101B600001F0DEBB704700BFCC0A00202DE9F8432E
:101B70003A49BFF35B8F0646012251E8003F41E836
:101B800000200028F9D1BFF35B8F33B934493548C1
:101B90004B60CB608A6003F06CFD731E012B32D862
:101BA000012E07D14FF08043D3F81C3403F0030318
:101BB000012B28D005F0E2FF044618B92A4B1B7808
:101BC000002B44D14FF02003EFF3118583F31188EC
:101BD000BFF36F8F0124254FDFF89480DFF89490D6
:101BE0004FF08042D2F81834D2F81824D2030CD522
:101BF00003F00303012B01D0012E06D10CB385F3B2
:101C00001188BFF36F8FBDE8F883ACB1284600F0B0
:101C10000DFB4FF08042D2F81835002BE0D1396827
:101C20000029DDD03B603B680123C2F81835C8F8B5
:101C30008031C9F80030D3E70021212002F088FE6E
:101C4000E7E74FF080430222C3F80423DBE74FF0BD
:101C500080430222C3F808230546BCE7D00A0020CF
:101C60006C0A0020980A0020C832002004010040BD
:101C700000E100E008000040044A1368C81A20F0A0
:101C80007F400344136002F085BF00BFE00A0020DC
:101C90002DE9F047860006F1804600F1500406F574
:101CA0008836A400DFF87C80D6F84035A4B204F171
:101CB00080444FF4803721F07F4504F58834874015
:101CC000C146D8F804A5A3EB0A0323F07F432AF00A
:101CD0007F42012BC6F8402502D1132005F054FFA6
:101CE0000AF10202AB1A23F07F43B3F5000F88BF5D
:101CF0001546002323602368C9F8447325F07F4309
:101D0000C6F84035D9F804359A4506D0EB1A023B9F
:101D100023F07F43B3F5000F01D8BDE8F0872B46D1
:101D2000CFE700BF00100140F8B5104E104F00255E
:101D3000104B00201C681A4605B1F8BDD6F80413F4
:101D4000C903FAD539680029F7D03D6039684FF4E6
:101D50008031C6F84813D6F8401501251CB15A68E1
:101D60001860A047E4E71460E7E700BF00100140F7
:101D700040110140D40A002038B5104D00244FF422
:101D80008033C5F80845C5F804330D4B4FF40032D5
:101D9000C3F8802101212246112000F0FDF9112015
:101DA00000F0DCF9074A01231360074A2B60022088
:101DB0001360FFF7DBFE204638BD00BF0010014076
:101DC00000E100E008100140DC0A0020134BB0F1F4
:101DD000FF3F08BF1846013800281CDD9842A8BF05
:101DE00018460F4BD3F804250E4B1968521A12F4FB
:101DF000000F22F07F4318BF00200B4A0133034439
:101E00000A48106000205060044A934294BFC918E9
:101E10008918FFF73DBF0020E3E700BFFFFF7F0009
:101E200000100140E00A0020D40A0020791C0000C4
:101E30004FF02002EFF3118382F31188BFF36F8F0D
:101E4000064AD2F80405064A1268801A20F07F403C
:101E500083F31188BFF36F8F704700BF00100140FC
:101E6000E00A0020014802F05FBF00BF047F0000CD
:101E700008B5D0B14368042B11D100220368BFF329
:101E80005B8F53E8001F012903D143E8002000289D
:101E9000F7D1BFF35B8F074808BF104608BD3BB1C1
:101EA000006802F04FFB0020F8E76FF4E040F5E730
:101EB0000148F3E7E98FFFFFEA8FFFFF10B5044603
:101EC00018B90D4B0D485B689847616808290DD01B
:101ED00031F004030AD011F0020108D0084821466D
:101EE00002F08EFA002323600023636010BD206897
:101EF000142203F038FFF7E750000020C8860000E6
:101F0000E40A002010B5044618B9164B16485B6861
:101F100098476368042B23D0082B21D0CBB92368C2
:101F2000BBB912484FF0FF324FF0FF33214602F0A9
:101F300035FA08B923681BB90A4B0D485B68984706
:101F400020681422002103F00EFF636843F00203AF
:101F50006360206805F05EFD636843F00103636021
:101F600010BD00BF50000020C8860000E40A002019
:101F7000EE86000008B508B34368042B10D1012297
:101F80000368BFF35B8F53E8001F002903D143E8C8
:101F900000200028F7D1BFF35B8F0BD1002008BDD4
:101FA00053B100684FF0FF324FF0FF3302F052FAA6
:101FB0000028F3D00348F2E70348F0E76FF4E0406D
:101FC000EDE700BFE98FFFFFEA8FFFFF08B5064985
:101FD00006484023142205F002FDBDE808400449EC
:101FE000044802F0F7BE00BF000B0020E40A002006
:101FF0001C7F00000C7F000010B5114C114AA2613B
:102000000323C4E90433104BE36122664FF4806379
:102010000E4A0F492362626600231022E01DA3626C
:102020006362E3622367E3666367A26603F04AFEC6
:102030000849204603F046FE2023A37110BD00BFCF
:10204000001000201B870000C52E0020B52E0020A8
:102050002487000028870000F8B5184C182300FBDF
:10206000033503FB00402544C46A012C0F46164685
:102070000FD0022C1AD0F4B9284603F0BAFD8642DC
:1020800005D832463946284603F0C1FD344620467D
:10209000F8BD284603F0ADFD8642344628BF04460D
:1020A00022463946284603F0B2FDF0E72846BDE84F
:1020B000F84003F0C8BD0024E9E700BF001000208D
:1020C000094A0A4993680968D967094998674B68BA
:1020D00043F080534B60002383F31188BFF36F8F6D
:1020E0009368D86F704700BF68110020DC80000043
:1020F00000ED00E00F498A684FF038001044EFF31C
:10210000098C80E8F01F202080F31188BFF36F8FC7
:10211000094F4FF000664A6A8A603E60906F002364
:10212000936780F3118802F1380090E8F01F8CF378
:10213000098870476811002004ED00E01EF0040FCC
:102140000CBFEFF30880EFF30980816911F8021CDE
:102150000229FFD001B503F0AAFD01BD43B2002B57
:1021600008DB012200F01F0002FA00F05B09024ABE
:1021700042F82300704700BF00E100E0054B420930
:1021800000F01F0053F82220012303FA00F0104052
:10219000704700BF00E100E043B2002BA8BF03F18D
:1021A000604301F10101B8BF064B4FEA4111ACBFDA
:1021B00003F5614300F00F00C9B2B4BF195483F8AE
:1021C0000013704714ED00E016461D4680B50F461B
:1021D000044600F0AFFA2A4638463146084B20251F
:1021E00083F3098863B64FF0000383F31188BFF3CC
:1021F0006F8FA04785F31188BFF36F8FFEE700BF95
:10220000D05A0020014910220A60704710ED00E00A
:1022100072B6404080F31188BFF36F8FBFF34F8FCA
:1022200030BF62B6BFF36F8F704700BF72B64940D0
:1022300081F3118820BF80F3118862B6704700BF18
:1022400037B505460C46C9B18B680093D1E9002328
:102250000E48452103F09EF963690093D4E90323F6
:102260000B48452103F096F9E2690A48452103F03D
:1022700091F9A2690848452103F08CF921462846C6
:1022800003B0BDE8304001F0C9BF00BF2F87000098
:102290006387000097870000AB87000030BFFFF71F
:1022A000FDBF00BF0E4A08B50E4B22F07F029A60B8
:1022B000BFF34F8FBFF36F8FD3F8882022F47002E3
:1022C000C3F88820EFF3148323F0040383F3148806
:1022D00001F0F0FF02F074FB00F0FEF902F00CF8E0
:1022E0000000000000ED00E001B572B60B4A106A74
:1022F00000281EBF0021116205F06FFB62B6EFF3EC
:102300000580A0F110004FEAC0000549014409C949
:102310009847BDE8014003490847000068110020C4
:10232000447C0000D526000003F043FD202080F30C
:10233000118808484FF40061401880F30988EFF3D2
:1023400014800221084380F31488BFF36F8FFFF7D6
:10235000A9FF0000D05A0020EFF30880EFF30981B5
:1023600001B5724600F0FEF801BD00BF70B5224C09
:1023700006460D462148452103F00CF9A26AD00615
:1023800003D51F48452103F005F9A36A190703D5B2
:102390001C48452103F0FEF8174CA36A9A0710D594
:1023A0001948452103F0F6F8626BA36A1B0608D5AD
:1023B0001648452103F0EEF81EB1A36A23F080030E
:1023C000A3620D4CA26AD00703D51148452103F042
:1023D000E1F8A36A990603D50E48452103F0DAF81F
:1023E000054B9A6AD20658BF9A6A9A6A002042F050
:1023F000FF029A62287070BD00ED00E0DE870000E9
:10240000F9870000318800004988000066880000D4
:1024100081880000A588000070B5234C06460D4653
:102420002248452103F0B6F8A26AD10403D520481A
:10243000452103F0AFF8A36A1A0503D51D484521CD
:1024400003F0A8F8184CA36A9B0510D51A4845213B
:1024500003F0A0F8A26BA36A180408D51748452119
:1024600003F098F81EB1A36A23F40043A3620E4C54
:10247000A36A590503D51248452103F08BF8A36AD6
:10248000DA050BD50F48452103F084F8064A936A14
:10249000002043F47F439362287070BDA36A9B04BD
:1024A000F4D509484521EFE700ED00E0D9880000A8
:1024B000F4880000318800000A89000028890000A3
:1024C0004289000062890000A588000010B51D4CFB
:1024D0001D48452103F05EF8A26A930103D51B480D
:1024E000452103F057F8A36ADC0103D518484521BC
:1024F00003F050F8134CA26A100303D51548452188
:1025000003F048F8A36A590303D51348452103F0A3
:1025100041F80C4CA26A920303D51048452103F000
:1025200039F8A36ADB0303D50D48452103F032F8DF
:10253000044A936A6FEA03436FEA134393620020ED
:1025400010BD00BF00ED00E07F8900009C89000005
:10255000B4890000D3890000F6890000208A0000B9
:102560003F8A00002DE9F0434A4BD3F804908BB02A
:102570000F46C9F30808002585F31188BFF36F8F54
:1025800002F07F43B3F17F4F07D102F00C03082B19
:1025900005D14148452102F0FDFF2F4603E0120717
:1025A00001D4074601250022A8F103068DF8072073
:1025B0001446092E5BD8DFE806F0054F53335A5A0C
:1025C0005A5A5A573548452102F0E4FF314B8DF8ED
:1025D0000740DC6A14F0020405D03148452102F0BE
:1025E000D9FF00241FE0DB6A5B001CD52D48452184
:1025F00002F0D0FF2C4B1B782BB10DF1070101200D
:10260000FFF7B4FE0EE0294B1B782BB10DF107014B
:102610000120FFF701FF05E0254B1B889BB213B19A
:10262000FFF754FF04469DF8073093B9202239463E
:1026300002A803F06DFB099B35B3C3F3080222B96E
:102640006FEA53236FEA4323099302A92046FFF759
:10265000F7FD0BB0BDE8F0830DF107010020CFE7D7
:102660000DF107010020D4E712484521B7E71249D0
:10267000124A134819F4F87F08BF0A46A8F110035C
:10268000452102F087FFACE723F4FF7323F0010339
:10269000DAE700BF00ED00E09D8A0000CD8A00006F
:1026A000E98A00000F8B000028ED00E029ED00E032
:1026B0002AED00E0338B00006F8A0000848A00005E
:1026C0006E8B0000024A536943F010035361704758
:1026D00000ED00E0704700BF044800232021C2182D
:1026E0000133302B82F80013F9D1704700E100E08C
:1026F00008B50E4B9B68834207D1EFF3058393B176
:102700000B4A536843F08053536002F015F84FF0C2
:102710002003EFF3118083F31188BFF36F8FBDE8BF
:10272000084005F07EB902F02BF900BF68110020C7
:1027300000ED00E0024B034A0348012100F092B88B
:102740000000042000000020307F0000F8B5224F78
:10275000154600228A420EDA4468002C39D093B123
:1027600004F1FF3C14EA0C0F07D01C48452102F08D
:1027700011FF6FF015052846F8BD1F2CF5D9066826
:102780001CEA060FF1D1202C0668D0F808C0EDB283
:1027900010D9B4F1004F0FD8013CB4FA84F4C4F15D
:1027A0001F046400072D4CEA040407D90C482A468C
:1027B0004521DCE70824F5E73E24F3E726F01F0671
:1027C0002E4346F0100644F00104BD60FE60013562
:1027D0003C6101320C30BDE790ED00E08A8B0000D7
:1027E000B28B0000034B05225A60BFF34F8FBFF33B
:1027F0006F8F704790ED00E0BFF35F8F014B0022B9
:102800005A60704790ED00E013490868082810B539
:102810001ED8FFF7F1FF114C49680022904201F1E8
:102820000C0105D10E4B1870FFF7DCFF002010BD26
:10283000A26051F80C3C23F01F03134343F0100334
:10284000E36051F8043C43F0010323610132E5E702
:102850004FF0FF30EBE700BF3C7F000090ED00E061
:10286000C532002010B5034C01232278FFF76EFF1C
:10287000207010BDC5320020014B1860704700BFAA
:10288000300000204FF02003EFF3118283F3118812
:10289000BFF36F8F06490123C1F840354FF08041E7
:1028A000C1F8783582F31188BFF36F8F002070472D
:1028B00000E001404FF08043C0B2C3F81C05BFF3F5
:1028C0004F8F0549054BCA6802F4E0621343CB60A1
:1028D000BFF34F8F00BFFDE700ED00E00400FA05F5
:1028E00020B1034B800143F001031847704700BF3C
:1028F000107E000008B5094B1A786AB901211970D9
:1029000006200521FFF748FC0620FFF727FC044BB3
:102910004FF00042C3F80423002008BDC632002057
:10292000006000402B4BF0B544682B4813408342B5
:1029300041D00DD8062B15D005D89BB1022B3CD029
:102940006FF0150036E0B3F5801FF9D1012309E0DF
:102950002248834233D0B3F5A00F32D0B3F5800FB5
:10296000EED10223D00654BFC2F34016032682F4F0
:1029700080759705C2F34020C5F3002507D512F4F2
:10298000006F67681FD001228A40C7F80825227AA5
:10299000134C012A01F01F0140EA450218BF4FF015
:1029A000A04442EA032301F5E07143EA860344F8B8
:1029B00021300020F0BD0723D4E70423D2E705230C
:1029C000D0E70323CEE7520542BF01228A40C7F871
:1029D0000C25DCE70600F0000600100002004000B5
:1029E0000003005000F01F024009084B012818BFE7
:1029F0004FF0A04303EB8203D3F8002722F44032C8
:102A000042EA0142C3F80027704700BF00030050AC
:102A1000F7B50E464168C768097A06F01F05B2F59A
:102A2000A03F45EA411510D16809012805F01F01B2
:102A30005D4801F5E07118BF4FF0A04050F821103B
:102A4000C80707D56FF0220093E0B2F5005FF96880
:102A500000F09180F8680121B14001437869F96084
:102A60000121B140B2F5A03FBA690CBF08438843C9
:102A7000B3F5C02F0CBF0A438A43BA613A69786143
:102A8000B3F5802F0CBF114322EA0101474A396197
:102A9000D2F804330020DBB200F5A27152F8211005
:102AA000C1F305218D426BD123FA00F1C90767D527
:102AB000830003F1804303F5C043D3F8101521F0E0
:102AC0000101C3F8101501238340C2F80833C0B2D6
:102AD00000F0A0FC28460021FFF784FFF868F040D2
:102AE00010F0010045D07869F04010F001044ED09C
:102AF000BB69F340DB075FBF396921FA06F606F0D0
:102B00000106C6F102060DF1070054BFF6B2032616
:102B100000F0A2FC264B984236D19DF807108B009E
:102B200003F1804303F5C0432D02D3F8102522F4AE
:102B30004F3222F44072C3F81025D3F8102505F463
:102B40007C5515438A0002F1804202F5C24245EAF3
:102B500006460020C3F8106510601268D3F81025EF
:102B600042F00102C3F81025104A01238B40C2F83D
:102B7000043303B0F0BD0120B04021EA00016DE74D
:102B80000130082888D1A5E76FF01200F1E7396914
:102B9000F14001F00101C1F103012846C9B2FFF77C
:102BA00021FF2046E5E700BF000300500060004021
:102BB0000000AD0BF7B50026CDE90066264D2C6868
:102BC0004CB1264803F061F90090254803F05DF907
:102BD00001902E602B68234D002201269446D5F8E3
:102BE000043306FA02F119421BD0910001F1804131
:102BF00001F5C2410B68A3B102F5A27302AF55F80B
:102C00002330C1F800C0C3F3403007EB8000C3F3AA
:102C1000042350F8087C06FA03F33B4340F8083CD1
:102C20000B680132082ADAD1009A1AB10B490E4812
:102C300003F0C1F8019A1AB109490C4803F0BBF836
:102C400044B1064803F04AF9054803B0BDE8F04036
:102C500003F044B903B0F0BD7C610040D000002017
:102C6000E000002000600040AC100020C8100020F0
:102C7000024B0B6001231360704700BFE01000207F
:102C800000487047B07F000010B503F051FA034CC4
:102C9000206003F049FA6060002010BDE0100020C1
:102CA0004FF08042D2F81015D2F8103501F01E0115
:102CB00023F01F030B4343F00103C2F81035024B0E
:102CC00000221A70704700BFC73200204FF08041C9
:102CD000D1F8102512F001001AD0D1F810050D4BD3
:102CE00020F01F0002F01E021043C1F81005186802
:102CF00058B1D1F8103523F01F03134343F00103FB
:102D0000C1F810356FF047007047034B01221A706D
:102D1000704700BF08010040C73200202DE9F04194
:102D20000E46144603F000FA21460546304603F0ED
:102D3000FDF8374690B3B6FBF5F305FB136323B9F3
:102D4000B4FBF5F005FB104040B11748234632466E
:102D5000452102F01FFC6FF0150016E0A54214D8C3
:102D600003F0E2F9114EDFF84C8005463368082B7A
:102D70000DD0384600F0A8FB98F800300BB1FFF7F3
:102D80008FFF641B2F44F1D12046BDE8F081FFF78F
:102D90009DFF0028EDD06FF04700F6E7044823467A
:102DA00032464521D5E700BFFE8B00003001001000
:102DB000228C0000C732002070B50D462846194607
:102DC00016461C4603F0B2F840B9094823462A4685
:102DD000452102F0DFFB6FF0150070BD34B12246D3
:102DE0002946304602F094FF0020F6E72046F4E73B
:102DF000228C00002DE9F0470E4630461946174652
:102E00001C4603F093F848B91E4823463246452134
:102E100002F0C0FB6FF01500BDE8F08744EA06053C
:102E200015F0030504D01848234632464521EFE744
:102E300034B3DFF85C90DFF85CA024F00304A54213
:102E400005EB060806D1114AD2F80034DB07FBD5A2
:102E50000020E1E7D9F80030082B0AD07959404624
:102E600000F052FB9AF800300BB1FFF719FF043560
:102E7000E5E7FFF72BFF0028F0D06FF04700CBE726
:102E80002046C9E7228C0000448C000000E001408D
:102E900030010010C732002070B5174E3268072A83
:102EA000044623D84FF080552869B4FBF0F300FBAB
:102EB0001343F3B92869B1FBF0F300FB1310C0B959
:102EC0002B696D696B438B4213D391B1531C3360F3
:102ED000130103F1804202F5F0321346C2F80048B4
:102EE000C2F804180222C3F8082870BD6FF01B0056
:102EF000FBE76FF01500F8E7E8100020034808B57D
:102F0000452102F047FB0020FFF7D4FC718C000044
:102F10008168054A08B51039102302F070FD0038A9
:102F200018BF012008BD00BFB87F000030B50C46B7
:102F3000816887B0102302AA1039054602F042FDCD
:102F4000002811DB102202A9284603F037F868B1E7
:102F500003232370A96801230DF1070228392846AD
:102F600002F030FD00280BDA01202AE01649102279
:102F700002A802F0BDFE002814BF02230123E8E7E7
:102F80009DF8073003F00F021B09627023710122C4
:102F90000DF10701284603F011F810B96378042BEE
:102FA00003D90123637000232371AA68A11C203A6E
:102FB000284603F057F80028D6D1E11C284603F034
:102FC0007AF807B030BD00BFB87F00002DE9F043AC
:102FD00085B06946022003F072F818B1FF2005B0F1
:102FE000BDE8F08302A9062003F069F80246002834
:102FF000F4D19DF800509DF808609DF803709DF88D
:103000000B809DF802901E4C2078294603F016F89C
:1030100000B36078314603F011F8D8B1A378042BDF
:1030200001D0BB4216D1E378042B01D0434511D126
:103030002379042B0CD16379022B16D1114A124843
:10304000492102F0A7FA6079831E022BC7D9C5E790
:103050004B45F0D00132032A04F10604D4D10B48C9
:10306000492102F097FA0120B9E7032B05D0084A5D
:103070000849042B18BF0A46E1E7074ADFE700BF0B
:10308000E98C0000A58C0000C18C0000D48C0000ED
:103090009E8C0000AF8C0000AA8C0000064B1B68C1
:1030A000082B06D1054B1B68052B02D8044AD05CBF
:1030B00070470020704700BF30010010340100103D
:1030C000FB8C0000064B1B68082B06D1054B1B68C8
:1030D000052B02D8044AD05C70470020704700BF1F
:1030E0003001001034010010018D0000024AD2F8B6
:1030F0000034002BFBD0704700E0014010B5FFF713
:10310000CDFF40B14FF080430022C3F80C21C3F83B
:103110001021C3F83825FFF7C1FF002846D04FF033
:103120008052524BD2F80414C3F82015D2F8081478
:10313000C3F82415D2F80C14C3F82815D2F81014CB
:10314000C3F82C15D2F81414C3F83015D2F818149B
:10315000C3F83415D2F81C14C3F84015D2F8201463
:10316000C3F84415D2F82414C3F84815D2F828142B
:10317000C3F84C15D2F82C14C3F85015D2F83014FB
:10318000C3F85415D2F83414C3F86015D2F83814C3
:10319000C3F86415D2F83C14C3F86815D2F840148B
:1031A000C3F86C15D2F84424C3F87025FFF78AFFE2
:1031B00010B12F4B2F4A1A60FFF784FF18B12E4B26
:1031C000FB22C3F81825FFF77DFF48B12B492C4B94
:1031D0000A681B6822F00F0203F00F0313430B6011
:1031E000FFF770FF18B1274B4FF400721A60FFF71A
:1031F00055FF48B14FF08043D3F80024D20744BFB5
:103200006FF00102C3F800244FF01023D3F800221E
:10321000002A03DBD3F80432002B22DA1A490123F7
:10322000C1F80435FFF762FF4FF010201224C0F8F8
:103230000042FFF75BFFC0F80442FFF757FF00238F
:10324000C1F80435FFF752FFBFF34F8F0F49104B02
:10325000CA6802F4E0621343CB60BFF34F8F00BF34
:10326000FDE70C4B0C4A1A6010BD00BF00C00040C7
:103270008C5600404881030000F00040E40E0040FE
:10328000580200104096024000E0014000ED00E0CE
:103290000400FA05340000200090D003044B1A7992
:1032A00022B9012218609A8002487047024870478C
:1032B000EC1000200000AD0B0C00AD0B10B101288C
:1032C00020D070474FF08043D3F81824D3F8181457
:1032D00011F4803F194611D002F00302012A0DD1EA
:1032E000C3F818250C4B00221A601B684FF080436E
:1032F0000222C3F8042301229A6070470023C1F818
:103300001835EFE7054B00221A601B684FF0804329
:10331000C3F8040318607047040100400001004036
:1033200038B510B1012818D038BD4FF080430222C3
:10333000C3F80823184A10601268184A0121116066
:1033400042F210751C46D4F81834DB03ECD501208A
:1033500002F0D8FE013DF6D1E6E7114B4FF0804474
:103360000022C4F808031A601B680E4B42F2107565
:103370001860D4F80C34D4F80C24D20303F0010301
:1033800005D523B1012002F0BDFE013DF1D1064B70
:1033900000225A71C8E700BF040100400C00004041
:1033A0000001004004000040EC100020164B1A6899
:1033B00010B56AB100221A601B684FF080430122E9
:1033C000C3F80823114B587910B95A711B689847F4
:1033D0000F4B1A6872B100221A601B684FF08043CD
:1033E000D3F81824D3F81814920704D10122C3F893
:1033F00018259A6010BD0222C3F80823034BBDE8CC
:1034000010401B680120184700010040EC1000200C
:1034100004010040012303FA00F010F0FF0F12D066
:103420004FF02003EFF3118183F31188BFF36F8F07
:10343000064AD36D23EA0000D06581F31188BFF3FB
:103440006F8F034870470348704700BFF410002097
:103450000000AD0B0400AD0B2DE9F0410546DFF88F
:1034600060E01648DFF85C800024FF220126E3B20A
:103470004FF02001EFF3118C81F31188BFF36F8FB0
:1034800022FA03F1C9070AD5DEF85C1006FA03F741
:10349000394201BF3943CEF85C1040462B708CF3A3
:1034A0001188BFF36F8F404505D006FA03F39A43A6
:1034B00004F10104DBD1BDE8F08100BF0200AD0BD7
:1034C000F41000200000AD0B4FF080531A69B0FBE0
:1034D000F2F302FB130373B9084B0222C3F804256D
:1034E000C3F80805D3F80024D207FBD5002204480E
:1034F000C3F8042570470348704700BF00E001404F
:103500000000AD0B0A00AD0B074B0122C3F80425E8
:10351000D3F80024D207FBD50160BFF35F8F0022F0
:10352000C3F80425704700BF00E0014001680E4A5F
:103530009142034615D1C169A2F11022A2F1EF1206
:1035400091420ED18268012A0BD8C26812B101697A
:103550008A4206D0586928B19B691B1A58425841C3
:1035600070470120704700BF55AA00FF0D4B70B592
:103570009E68A6B13046FFF7D9FF044678B9F368D4
:103580006BB935690DB9204670BD2846FFF7CEFFEF
:1035900028B9EB68B34202D12E462D69F2E7012427
:1035A000F1E700BF541100202DE9F843404D2C688D
:1035B000D4B1AC68C4B100284DD000294BD001FB78
:1035C00000F6B6FBF0F0884245D1301D43D8B10774
:1035D0000DD026F003070437EC6803E06368BB42B4
:1035E0003BD2A469002CF9D12046BDE8F8833746C8
:1035F000F2E7E86044E007F1200C04EB0C0320390B
:1036000059600021C3E90214DFF8ACE021691961B7
:1036100044F80CE0DFF8A4C0C3F81CC001B1CB60D3
:10362000C3E90520AAB193619A6902B1536123618C
:103630000023C4E905332B694FF00109DB07C4E916
:1036400001792DD5FFF792FF50B31A4B48461B68FE
:1036500025E0EB60E8E70024C6E7A3681BB1154B43
:1036600001201B6898476168C91B2329D4E90520FC
:1036700004F12008BFD80123A360002AB9D09061CB
:10368000A36903B15A610023C4E905332B69DA0742
:1036900006D5FFF76BFF18B1064B1B680120984752
:1036A000324600214046444602F05DFB9CE700BFE5
:1036B000541100203C00002055AA00FF669911EE2D
:1036C0002DE9F041054600287CD03F4E3368002BA1
:1036D00078D0B268002A75D0834203D87268134448
:1036E000984203D3394B01201B689847A5F1200469
:1036F0002046FFF71BFF18B1344B01201B68984789
:1037000055F8183C012B03D0304B01201B6898471B
:1037100055F8147C002345F8183CAFB1BA6892B94B
:1037200055F81C3C03F120027B6813447B6055F87C
:10373000103C3B6103B1DF6020462022002102F0F3
:1037400012FB23463C461F462069002832D083687E
:10375000002B2FD16368426820331344D4E905213C
:10376000636003692361DAB901BB426981696261FF
:10377000A161EAB19461A26902B1546103B1DC6054
:103780002022002102F0EFFA33699B071AD5FFF7D8
:10379000EDFEB8B10D4BBDE8F0411B6801201847A4
:1037A0009161A1690029E0D04A61DEE7F160F8E7A4
:1037B000F460E0E7002FE7D1F368A36103B15C6137
:1037C000F460E1E7BDE8F081541100203C000020E6
:1037D00038B514220D4604460021124802F0C3FAFF
:1037E0001149124800F032F8232D1AD914F00303BE
:1037F0001FBF043DED18C3F10403E4182A4600215D
:10380000204602F0B0FA074B094A9C60C3E9004524
:103810002260A2F11022203DA2F1EF126560E26168
:10382000DC6038BD54110020C1360000A93500000D
:1038300055AA00FF014B1B68184700BF3800002045
:10384000014B1B68184700BF40000020024B186066
:10385000024B002019607047380000204000002013
:103860000A4619B1024B00211B681847704700BF78
:1038700044000020F8B500F10806476804463046C9
:103880000D4603F091F8874216D16368B3F5807F47
:1038900012D80021304603F0FEF900280CDD00218B
:1038A000304603F054F838B145B9002104F1140052
:1038B00003F0F1F900281EDC1B481EE004F12C0681
:1038C0000021304603F0E7F90028F5DD00213046FD
:1038D00003F03DF80028EFD004F13806002130460F
:1038E00003F0D9F90028E7DD0021304603F02FF876
:1038F0000028DAD1E0E70DB90020F8BD002104F17D
:10390000440003F0C8F90028D6DD002104F150007E
:1039100003F0C1F90028CFDD002104F15C0003F0C1
:10392000BAF90028E8DCC7E780BFFFFF70B50021C7
:103930000446FFF79FFF0546B8B904F10806304674
:1039400003F016F87F2810D914342946204602F0D7
:10395000FEFF50B1204603F00BF8012805D931468F
:10396000204603F055F9002800DB014D284670BDC4
:1039700000BEFFFFF0B50C4687B000210546164695
:10398000FFF778FF80BB03A802F05BFF21466A685F
:1039900003A803F00FF80446D0B905F10804214646
:1039A00003A803F035F900281BDA05F1680303A921
:1039B000009305F11402234608466F6803F0BEFC2D
:1039C000044628B93A46314603A803F02BF80446CA
:1039D00003A802F03CFF0CB1A4F58544204607B0D3
:1039E000F0BD6FF00304F3E7004CF7E780BFFFFF83
:1039F0000023C0E90033C1B9194A1A4BDFF88CC063
:103A0000C0E90223184B194AC0E904C3184BC0E9A6
:103A10000623184B036203F17453A3F52303A3F6A3
:103A200092434362816600207047134B134ADFF8CC
:103A300060C0C0E9022303F1794303F5740303F581
:103A4000016303610E4BC0E905C303F1D14303F5E4
:103A5000C01303F51E63C3610A4B03620A4BE0E720
:103A600067E6096A85AE67BB3AF54FA57F520E51EE
:103A70008C68059BABD9831F07D57C36D89E05C1C2
:103A8000310BC0FFA78FF964A44FFABE72F36E3CEE
:103A900039590EF72DE9F04FD1B000F10803059325
:103AA00008AB009300F128030693009A059B53F896
:103AB000040B42F8040B06989842F8D10DF1400926
:103AC00001F140004A464B780C781B0443EA04633A
:103AD000CC7823438C78043143EA0423884242F8AB
:103AE000043BF0D1009B00999B48D3F81CC0D3F84D
:103AF0001080C9680190D3E9056BD3E900729B6817
:103B0000CA468646DEF80000DAF800404FEAF8259B
:103B100085EAB815204485EA786505448BEA0600F5
:103B200000EA080080EA0B00054447EA02044FEA75
:103B30007730AC4480EAB70007EA02051C4080EA0F
:103B4000B7502C430444DEF80450DAF8040005446E
:103B50006144AB4488EA06050D40A44485EA0604A6
:103B60000BEB04054FEAF12B8BEAB11B8BEA716B6F
:103B7000AB444CEA07004FEA7C350CEA070485EABF
:103B8000BC051040204385EABC55DEF808400544DA
:103B9000DAF8080004445B44264481EA08041C4027
:103BA0005D4484EA080B06EB0B044FEAF32686EA31
:103BB000B31686EA736626444CEA05004FEA75346C
:103BC0000CEA050B84EAB504384040EA0B0084EAAD
:103BD000B554044434443244DEF80C00DAF80C6086
:103BE00081EA030B30440BEA020B4FEAF2268BEA20
:103BF000010B404486EAB216584486EA72660644CF
:103C000007EB06084FEA743045EA040705EA040B9F
:103C100080EAB40007EA0C0747EA0B0780EAB450D1
:103C200038443044DAF81070DEF8106083EA020B92
:103C30003E4431440BEA080B4FEAF8268BEA030BAB
:103C400086EAB816594486EA78660E4444EA0007C4
:103C50004FEA703104EA000B81EAB0012F4047EAD5
:103C60000B0781EAB05139443144B444DAF8147096
:103C7000DEF8146082EA080B3E4433440BEA0C0B76
:103C80004FEAFC268BEA020B86EABC165B4486EA06
:103C90007C661E4405EB060B4FEA713340EA0105D2
:103CA00000EA0107254083EAB1033D4383EAB153AB
:103CB0002B443344DEF81850DAF8186035441544C4
:103CC00088EA0C0202EA0B0282EA0807EA194FEAC4
:103CD000FB2585EABB1585EA7B65154466194FEA25
:103CE000733241EA0304044001EA030782EAB302A3
:103CF0003C4382EAB35222442A44DEF81C40DAF8FC
:103D00001C506719B8448CEA0B07374087EA0C0748
:103D100047444FEAF62888EAB61888EA76684744A6
:103D200000EB070843EA02044FEA723080EAB2006F
:103D30000C4003EA020580EAB2502C4304440748D1
:103D40000EF1200E704527440AF1200A7FF4DAAE06
:103D500009F1C000079003E0C87F00000880000060
:103D6000D9F83800D9F80450D9F800404FEAF04E9D
:103D70008EEA704E8EEA902ED9F824004FEAB54AAA
:103D800020448AEAF51A8AEAD50A86444FEAF824DA
:103D90000EEB0A0084EAB814049084EA78608BEA97
:103DA000060404EA080484EA0B0404440198006C45
:103DB0002044049CC9F8404020448444614402915A
:103DC00047EA02004FEA773107EA020481EAB701C5
:103DD000184081EAB75120430844D9F83C10D9F87B
:103DE000084084444FEAF14080EA714080EA912023
:103DF000D9F8281029440144029888EA060E0EEAF0
:103E0000000E01984FEAB445406C85EAF41585EA46
:103E1000D4052944584408448EEA060E8644029884
:103E2000C9F844104FEAF02585EAB01585EA7065B7
:103E300005EB0E0003EB000B4FEA7C3547EA0C0361
:103E400007EA0C0E85EABC05134043EA0E0385EA37
:103E5000BC551D44049BD9F80CE005444FEAF340DF
:103E600080EA734080EA9320D9F82C30234403443D
:103E7000029888EA000A01984FEABE44806C84EAFE
:103E8000FE1484EADE0423440AEA0B0A30444FEAB3
:103E9000FB2418448AEA080A84EABB1484EA7B6497
:103EA000824404EB0A0002444CEA05044FEA7536EA
:103EB000039286EAB5060CEA05023C4086EAB5564E
:103EC0001443344404444FEAF14080EA714080EAEC
:103ED0009121D9F83000D9F81020C9F8483086442B
:103EE00071444FEAB24E8EEAF21E8EEAD20E8E4432
:103EF0000299039881EA0B01014002984140019820
:103F0000C66C0398C9F84CE0464476443144039E9D
:103F10004FEAF02080EAB61080EA7660461845EA5B
:103F2000040005EA04014FEA743800EA0C0088EA4C
:103F3000B40808434FEAF34188EAB45881EA734170
:103F4000404481EA9323D9F83410304407EB060A41
:103F5000D9F814600A4413444FEAB64282EAF612D2
:103F600082EAD6021A44039B0299C9F850208BEAD0
:103F70000307019B1B6D13440B4407EA0A074FEA32
:103F8000FA2187EA0B0781EABA111F4481EA7A61B4
:103F9000CB1944EA00074FEA703104EA000881EACD
:103FA000B0012F4047EA080781EAB051394419446B
:103FB0009C44D9F81880D9F838304FEAFE4787EA90
:103FC0007E4787EA9E2E9F194FEAB84383EAF8138B
:103FD00083EAD80377441F44039BC9F8547083EAEB
:103FE0000A0E0EEA0C0E8EEA030E019B5B6D3B443B
:103FF0005B449E444FEAFC2383EABC1383EA7C6360
:1040000003EB0E0605EB060B4FEA713340EA0105A0
:1040100000EA010E254083EAB10345EA0E0583EA72
:10402000B1532B443344D9F83C50D9F81CE04FEA43
:10403000F24686EA724686EA922205EB08061644A4
:104040004FEABE4282EAFE1282EADE021644019A7A
:10405000C9F85860956D039A35448AEA0C081544EE
:1040600008EA0B084FEAFB2288EA0A0882EABB1238
:10407000454482EA7B62154466194FEA733241EA8D
:104080000304044001EA030882EAB30244EA080494
:1040900082EAB35222444FEAF74484EA77442A443E
:1040A00084EA9727D9F82050049CA6444FEAB544E7
:1040B00084EAF51484EAD505019C7744E46D3D4417
:1040C0008CEA0B0E2C440EEA060E4FEAF6278EEA17
:1040D0000C0E544487EAB617744487EA766727447F
:1040E00000EB070843EA02044FEA7230C9F85C505B
:1040F00080EAB2000C4003EA020580EAB2502C4389
:104100000444019820300190079809F1200948459E
:1041100027447FF425AECDE90D6BCDE90872CDE9DA
:104120000A31CDF83CC0CDF83080059B00991B6862
:1041300051F8042B00911344059A42F8043B069B66
:1041400005929342F1D1002051B0BDE8F08F00BF3D
:10415000F8B5104B104F53F82050013053F8206041
:10416000AE4200D8F8BDD5E900342046984770B17A
:104170006CB1E41B24116109084A04F01F0452F8D1
:104180002100012303FA04F4044342F821400835D6
:10419000E6E700BFC8800000B0000020100100204A
:1041A000084BC01A0011084B420900F01F0053F8D9
:1041B0002220012303FA00F010420CBF1846002011
:1041C000704700BFB000002010010020114970B5F9
:1041D000114C05460E468C4204D10F4CB4420AD114
:1041E000002414E02046FFF7DBFF10B12368AB4248
:1041F0000DD01034EFE72046FFF7D2FF08B9103496
:10420000ECE72168284601F067FD0028F7D1204639
:1042100070BD00BF10010020B0000020F7B50546BA
:104220000E464FF02003EFF3118783F31188BFF39D
:104230006F8F00F09FFB042D96BF184B184B53F85F
:10424000253000220446009216482A46452101F0F6
:10425000A1F93EB1F369C3F308031BB1124845212C
:1042600001F098F934B1204603F092FC034608B1FE
:10427000027802B90D4B0E482246452101F08AF919
:1042800031462846FEF73AFE87F31188BFF36F8F59
:10429000204603B0BDE8F040FEF72ABAE0800000F7
:1042A000078D00001D8D00004A8D0000158D000057
:1042B000708D00000248034A0021121A01F053BD1C
:1042C00078010020CC32002008B5094B01220220E1
:1042D0001A70FFF73DFF00F067FB0320FFF738FF80
:1042E000FCF788F8034A137B23F00103137308BD1E
:1042F000C83200207801002008B5144B83F30888E9
:10430000134C636943F4007363610025E02384F870
:104310002230E57725766576A576636A43F4E02357
:104320006362FEF7CFF9FDF76DFF4FF0FF33A36235
:104330002846E362FFF70CFF0120FFF709FF05485D
:104340002B462A462946FDF73FFF00BFD0620020DA
:1043500000ED00E0C942000070B50E4B0E4CA342C8
:1043600001D3002070BDD3E9030141EA000212F03D
:1043700003020BD19D685A61AA4201D11C33EEE7BA
:104380005E690E60013259610144F5E76FF0150076
:10439000E8E700BF1401002014010020D3B50C464B
:1043A00016461F464FF02003EFF3118183F3118867
:1043B000BFF36F8F43695BB123601B6843618369FF
:1043C00001338361002081F31188BFF36F8F11E007
:1043D00056EA070203D123606FF00B00F3E70246B1
:1043E000CDE90067044800F05FFA18B9034B9B68F9
:1043F0005B69236002B0D0BDC93200206811002083
:10440000F8B504460D464FF02003EFF3118683F311
:104410001188BFF36F8F47696FB903F08AFB50B102
:104420002A684261C76703F029FB31460848BDE8A6
:10443000F84000F0CBB82B6862691A602B686361A2
:10444000A369013BA36186F31188BFF36F8FF8BDA9
:10445000C93200202DE9F341044616461F464FF0AD
:104460002003EFF3118883F31188BFF36F8FC368C4
:10447000324A6BB180689168884219D056EA0703C6
:1044800018D188F31188BFF36F8F6FF00F000CE025
:10449000916891F90E1021610133E3609368A36084
:1044A00088F31188BFF36F8F002002B0BDE8F08160
:1044B0002169F0E790F90E3091F90E109942A8BFEA
:1044C000194621EAE1718B422CDD00F0FDF9054629
:1044D000CDE900671A482246414600F0E5F9002878
:1044E000E3D04FF02003EFF3118683F31188BFF37D
:1044F0006F8F23682169A34207D033B193F90E303F
:104500009942A8BF194621EAE171A06890F90E30DE
:10451000994209D16DB10A48314600F057F86FF061
:104520000A00C2E70025D3E700F0CEF90028F2D157
:10453000F0E786F31188BFF36F8FF0E76811002072
:10454000C932002038B583680446002B33D01D4A99
:104550009268934232D1C368012B05D0013BC360FE
:1045600003F075FA002038BD4FF02003EFF31185FA
:1045700083F31188BFF36F8F0169806890F90E3063
:10458000994201D000F0A0F9204603F0D2FAA060D1
:1045900058B190F90E2022610022C26703F06EFA32
:1045A0000948294600F012F8DAE7E06085F311883F
:1045B000BFF36F8FD4E76FF01500D4E74FF0FF30F3
:1045C000D1E700BF68110020C932002049B9EFF3DC
:1045D000058030B9054B5A6A9B689A4201D0FDF7B5
:1045E0006FBD81F31188BFF36F8F70476811002092
:1045F000094B03F12802824205D19B688B4202D10C
:104600004B7BDB0606D1D1E9003213605A600023F0
:10461000C1E90033704700BF681100200F4A1369D9
:1046200010B501460BB1D0680DE002F1280003F08F
:104630001BFA9468637B13F0200F1CBF43F0080340
:1046400063730028EFD039B99368597BC90603D149
:104650008169002908BF1846506210BD681100200A
:1046600070B490F90D20437B002A2CDBDB062AD1A5
:10467000836943BB154A114651F8284F8C4218BF35
:104680002346002BD46A38BF0023B3B190F90E60E3
:1046900093F90E50AE4203DBA3420ED01B68F4E741
:1046A0005A68C0E9003210605860437B63F07F03B2
:1046B000437370BC0020FFF7B1BFC0E90014D36A98
:1046C0001860D062F1E770BC704700BF681100202D
:1046D00070B50446183003F05DFA4FF02003EFF395
:1046E000118683F31188BFF36F8F94F90D30002B7F
:1046F00007DA0F482146FFF77BFF637B03F07F0358
:1047000063730C4D637BA86843F010036373031B52
:1047100058425841FFF782FF86F31188BFF36F8F2D
:10472000AB68A34203D1BDE8704003F086B970BD09
:1047300090110020681100202DE9F04104464FF04F
:104740002003EFF3118283F31188BFF36F8F437B54
:1047500013F0280F05D082F31188BFF36F8FBDE8E7
:10476000F08143F02003437382F31188BFF36F8F0E
:10477000183003F00FFA4FF02003EFF3118683F3A4
:104780001188BFF36F8F637BD80616D1A269A2B9D7
:10479000190607D522482146FFF72AFF637B03F05D
:1047A0007F0363731F4B9868021B50425041FFF711
:1047B00035FF04F1300800271DE09B07F9D5A068FC
:1047C0002146FFF715FF637B23F002036373002389
:1047D000A360EEE705F1180003F0DCF9A8682946AC
:1047E000FFF706FF6B7BAF6023F002036B73EF678D
:1047F0002846FFF735FF256B454501D0002DE9D14F
:10480000637B43F008036373236E86F31188BFF361
:104810006F8F002BA3D02046BDE8F041184700BFA2
:10482000901100206811002008B590F90D30002B80
:10483000014606DA0748FFF7DBFE4B7B03F07F03F8
:104840004B73054B9868431A58425841BDE80840DD
:10485000FFF7E4BE90110020681100202DE9F0411F
:10486000064614461D464FF02003EFF3118783F3ED
:104870001188BFF36F8F03F031F987F31188BFF30D
:104880006F8F6B1C08BFB4F1FF3F08D022462B4648
:1048900006F118000349BDE8F04100F0F3B8BDE8A7
:1048A000F08100BF9D7A000010B506480C46806874
:1048B0001146DDE90223FFF7D1FF2046BDE8104095
:1048C000FDF7FEBB681100202DE9F04104464FF0D2
:1048D0002003EFF3118883F31188BFF36F8F437BBD
:1048E000DB064EB22ED1856965BB184F214607F114
:1048F0002800FFF77DFEBB6AFA6AA673834218BFE1
:104900001D46002D38BF0025B5B195F90E10B142F6
:1049100003DCAA4210D02D68F6E76A68C4E90052A9
:1049200014606C600120FFF779FE012088F3118884
:10493000BFF36F8FBDE8F081C4E90002FB6A1C6021
:10494000FC62EFE7A6730020F0E700BF68110020CB
:10495000013108BFB0F1FF3F08B506D1044B98689C
:10496000FFF7B6FE4FF0FF3008BD0020FCE700BFA8
:1049700068110020014B9868704700BF6811002043
:1049800008B54FF02003EFF3118483F31188BFF3D0
:104990006F8F044B98681861FFF79AFE2046FDF769
:1049A0008FFB00BF68110020024A0349034800F052
:1049B000F1BD00BF6F8D0000DA8D0000EB8D0000AF
:1049C00008B50648064A0749121A01F0A1F9BDE8E0
:1049D0000840054A0549064801F09AB90000002040
:1049E00078010020148E000000000000148E0000EA
:1049F00000000020034B1B680BB9FDF719BA00201B
:104A0000704700BF9811002030B5036868B10A4AAA
:104A10005268904209D043B1D3E90421D0E904455A
:104A2000121945EB0101C3E90421426813605A6081
:104A30000023C0E9003330BD4800002038B5104BDA
:104A40001C689C4208BF0024FFF7D4FF05468CB1C8
:104A5000D4E90401401B61EBE571012871F1000309
:104A60000BDB6FF000420023824273EB010400DA9B
:104A7000104638BD6FF00040FBE70020F9E700BFAB
:104A8000480000202DE9F74F019119464B1C08BF43
:104A9000B2F1FF3F82466CD0541C6FF0010341F12C
:104AA00000054FF0FF3BB3EB04086BEB0509B8F1D1
:104AB000000F79F100030FDBFFF79CFF334AD2E9C7
:104AC000001C6FF001035B1A6BEB0C021E1B62EB08
:104AD0000507341A67EBE075019BCAF808304FF000
:104AE0002003EFF3118683F31188BFF36F8FFFF775
:104AF00081FF012C75F10003254BB8BF01241A6812
:104B0000B8BF0025241845EBE0759A42CAE9044570
:104B100001D05F6852B95A68CAF804205A68CAF8C6
:104B20000030C2F800A0C3F804A014E0D2E9048960
:104B3000DAE90445444575EB09011DDAB8EB0400D8
:104B400069EB0501C2E904015168CAE90021C1F815
:104B500000A0C2F804A01A689A4206D0924504D177
:104B6000FFF76CFF0021FDF731F986F31188BFF3E1
:104B70006F8F03B0BDE8F08FB4EB080065EB09015F
:104B8000BA42CAE90401C6D01268C3E7F80100209E
:104B9000480000202DE9F74F4FF02003EFF3118478
:104BA00083F31188BFF36F8F2C4DDFF8B4A0DFF8CB
:104BB000B4B028605146D5F800C0DBF8000062466A
:104BC000D3175845DAE90089CDE900230DD060B14B
:104BD000D0E90467B445BB411EDA009BB6EB030C79
:104BE000019B67EB0306C0E904C6009B13EB0802B8
:104BF000019B4FF0000643EB0903C1E900232E603F
:104C0000FFF71CFF3146FDF7E1F884F31188BFF38D
:104C10006F8F03B0BDE8F08F18EB06084FF000026D
:104C20004FF0000349EBE679C0E90423ACEB06063C
:104C3000CAE900892E60FFF7E7FE84F31188BFF30D
:104C40006F8F836898474FF02003EFF3118483F34D
:104C50001188BFF36F8F0249ADE700BF98110020A4
:104C6000F80100204800002038B5064C064DAC4243
:104C700001D3002038BDD4E90112204602F0A0FF84
:104C80001434F4E7140100201401002010B50A4C7C
:104C900023681BB101232360002010BD00F0B6F88B
:104CA0000028F7D00138062803D8044B53F8200019
:104CB00010BD034810BD00BF9C110020F48000000F
:104CC000FE8FFFFFBFF34F8F0549064BCA6802F402
:104CD000E0621343CB60BFF34F8F00BFFDE700BF1F
:104CE00000ED00E00400FA05F0B4094F094E0A4C4B
:104CF0000A4A0B4D0B494FF0FE333B60526833605C
:104D0000236000242B60C1F80045F0BC104700BFB1
:104D100000B4025004B4025008B402505000002005
:104D20000CB4025000A00250D0E90012014BC3E9BC
:104D3000001270475000002048B143682BB1BFF308
:104D40005F8F0023036018467047024870476FF476
:104D5000E0407047EA8FFFFF10B5044628B1636852
:104D600013B100232360636010BD024B02485B68EF
:104D70009847F4E7500000201081000010B5044669
:104D800030B16368002243F001036360226010BD0C
:104D90000148FFF7A9FFF4E738810000A0B143689C
:104DA00083B10122BFF35B8F50E8003F40E8002150
:104DB0000029F9D1BFF35B8F012BF3D0BFF35F8FD5
:104DC00000207047024870476FF4E040704700BF12
:104DD000EA8FFFFF70B4D0E90065D0E90242094BC9
:104DE000C3E90242C3E90065D1E90240D1E90065A7
:104DF000054B0A691A61C3E90065C3E9024070BC4A
:104E0000704700BF600000207000002010B500F067
:104E100033F820B1032400F067F8204610BD00F0FD
:104E200035F890B900F0B0F890B90F4B1B681B0E25
:104E3000F02B08D10D4A0E4B12689A420AD0072473
:104E400000F01CF8E7E70624FAE70424204610BD2A
:104E50000024F5E7012000F097F804460028F7D178
:104E6000044B1860D9E700BF28B9025024BA025099
:104E70000000E0200CBA025000207047002070476C
:104E8000014B1860704700BF04BA025010B51148BA
:104E900000F048F800B110BD0F4800F043F80028BA
:104EA000F9D10E4C204600F03DF80028F3D10C4B10
:104EB0000C481C6000F036F801460028EBD100F0E9
:104EC0002DF8044608B1204610BD00F03FF82046FA
:104ED000FAE700BFA80000209C000020A4000020EA
:104EE000AC000020A000002008B5084800F024F81D
:104EF000074800F021F8074800F01EF8064800F0C7
:104F00001BF8BDE8084000F00BB800BFA800002067
:104F10009C000020A4000020A0000020002070477A
:104F2000704700BF08B5034B02681B6810689847BC
:104F3000002008BD6000002008B5034B02685B68D4
:104F400010689847002008BD6000002070B5094C2B
:104F5000094D2069AB68984718B1084B08485B6851
:104F60009847084AEB68206900211160BDE870404D
:104F7000184700BF70000020600000205000002093
:104F80005C810000B011002070B51A4D1A4E044625
:104F9000B26828699047F0B95CB1184C2368ABB18E
:104FA000012B1AD0013B23602869F3689847002041
:104FB00070BD124C216839B9114B124A0120C3F857
:104FC00000051368002BFCD101312160F3682869CA
:104FD0009847002070BD0C4870BD0A4A1368002B2A
:104FE000FCD1074A6FF07E40C2F80035FFF748FF5A
:104FF0002368D7E77000002060000020B011002077
:1050000000A0025010B90250E98FFFFF29B1012919
:1050100014BF6FF0150006207047022070472DE97D
:10502000F7430E4617469946044628B94FF0FF3815
:10503000404603B0BDE8F0830029F7D0002AF5D040
:10504000CB680D891D4404230DEB03022946384625
:1050500000F0B8FC80460028E8D1BDF80410738940
:1050600046F60812914223D1BDF806109942DDD1CF
:1050700004230DEB03022944384600F0A3FC00286A
:10508000D4D1BDF8042046F607139A42CED19DF83C
:105090002830A3727389BDF80620A4F808902B4429
:1050A000E36004351344C4E9006763612561BFE729
:1050B000002BE6D0BAE72DE9F7430F4690461E468F
:1050C000044620B94FF0FF3003B0BDE8F083036819
:1050D000002BF7D04368002BF4D04FF6FF79D4E9CA
:1050E00004239A4216D223685B8923B1E368934272
:1050F00004BF043323610423216960680DEB0302BC
:1051000000F060FC0028DDD1A37A256923B1E368B3
:10511000AB4201D80120D7E72189BDF806304945C7
:1051200003F1040203D0BDF804C08C450BD116B1C5
:10513000BDF80410318004353D60A8F800302369C3
:1051400013442361C0E715442561C8E72DE9F743FF
:1051500006460F4690461D4600F0A0FC082804466F
:105160001ED8304600F0A3FCAC4238BF2C46814626
:10517000E4B22A464146684600F0CAFD621B494631
:105180000DEB050000F0EFFD23466A463946304638
:1051900000F035FC003818BF012003B0BDE8F083F3
:1051A0004FF0FF30F9E700F0A3BD4FF4C073584350
:1051B000303070470B7803F0FB03022B14BF4FF025
:1051C000FF304FF4C070704710B5044600F066FC25
:1051D000A3684FF4C072303B02FB103010BD07B51E
:1051E0008168012301AA20398DF80430FFF7AEFF52
:1051F00003B05DF804FB13B50446019100F01BFFFA
:105200000423A0F108010DEB03022046FFF79EFFE7
:1052100002B010BDF7B5054600200C461746FFF753
:10522000F5FE6946C0B2FCF71DFB30B101250098C0
:1052300000F0C7FB284603B0F0BD2C2101FB04544D
:1052400000982189E368CE1804230DEB0302314650
:1052500000F0B8FB05460028E8D1BDF804206489B9
:1052600046F608139A421AD1BDF806309C4201D086
:105270000325DCE7042300980DEB0302A11900F0DD
:10528000A1FB0028D2D1BDF8042046F607139A42AC
:10529000EED1BDF80610214431443960C7E7002C37
:1052A000F1D0E5E7F8B513460F4616460021024651
:1052B0000546FBF793FD044650B9334605F12C0231
:1052C00001212846FBF78AFD10B1002F18BF0446C4
:1052D0002046F8BD37B5426A0446802501A9022060
:1052E0000195FCF7D3FA48B9019B226DA36201A98D
:1052F00006200195FCF7CAFA054608B1012505E02C
:10530000019B206A636500F0C9FBE065284603B095
:1053100030BD0123036003F1012343600023C0E992
:10532000023370474379012B07D10368012B04D165
:105330000079431E584258417047002070477FB59E
:1053400006460D46022001A9FCF78CFA38BB0198ED
:10535000FFF73AFFF16D0446284600F0E3F80444F5
:10536000019800F09BFB0646019800F0A0FB082284
:1053700001460DEB020000F0F6FC2B798DF80830A9
:1053800021460198334602AA00F039FB041E18BFDB
:105390000124019800F015FB204604B070BD0124E3
:1053A000F7E700F055BB2DE9F8430E46002107460C
:1053B0000846FFF72BFE012104460020FFF726FEDA
:1053C00033789C4220D0984220D101242C2303FB27
:1053D0000474F86DA56AFFF7E8FE013D80460027DA
:1053E000636A03EBC50253F83510D2F804901B68CA
:1053F0004A46C91A30464F44FFF7D3FFB84505F176
:10540000FF35EDD8BDE8F8830024DFE70120F9E798
:1054100037B515460C460620694600F050FEE9797E
:10542000012903D00022204600F05DFE9DF80330E4
:10543000012B02D1204600F032FEA9682046FFF77A
:10544000DAFE2046FDF764FD002003B030BD73B5E1
:105450000D460646FBF7AAFD0446E86030B1022877
:105460002ED101A9FCF7FEF918B10124204602B0A3
:1054700070BD01982A463146FBF7FEFC0446D8B9B8
:10548000019800F0D8FD012301460DF103020198B7
:1054900000F098FA04460028E7D1019801220DF1A6
:1054A000030100F0D9FD10B101238DF803309DF800
:1054B000033003F00F03EB71019800F082FAD5E797
:1054C0000724D3E713B5022001A9FCF7CBF948B9AB
:1054D0000198FFF784FE0446019800F072FA204616
:1054E00002B010BD0124FAE71FB5022001A9FCF7A4
:1054F000B9F9A8B9019802A9FDF718FD044668B9E1
:105500009DF80B30032B03D1019800F0C8FD044631
:10551000019800F056FA204604B010BD0124F7E7C8
:105520000124F8E730B543790468012B08BF012254
:10553000037918BF022201FB02F204F1FF3403F1E8
:10554000FF3302FB04F214BFCD01002501FB032150
:10555000481930BD034658B1426802F00302012ADF
:1055600003D0032A04D1026812B10020986070476A
:105570006FF0150070474268816002F00302032A51
:105580004FF0000203460CBF006810465A60704797
:10559000002070470FB407B504A951F8040B01911E
:1055A000FBF7F2FE03B05DF804EB04B07047038B29
:1055B00013F0070305D10368002B0CBF0020032064
:1055C0007047022B05D1438B002B14BF0020042011
:1055D0007047012B05D10368002B0CBF002005206C
:1055E0007047002070472DE9F0410D4607461946E7
:1055F000281D90461E46FFF7BEFF044638B13346CD
:10560000424629463846A446BDE8F0416047BDE819
:10561000F08110B44FF02004EFF3118284F311886D
:10562000BFF36F8F416110BC0121FBF7BBBE10B50A
:105630000C4640B139B1081DFFF78CFF28B9A368AB
:1056400033F0030301D06FF0150010BD38B50C46E0
:10565000054658B151B10B6843B14B6833B11C22B8
:10566000002100F080FB2C61002038BD6FF0150098
:10567000FBE770B504460E46FFF7D9FF051E31DB88
:105680004FF02003EFF3118183F31188BFF36F8F85
:10569000638B208B4FF6FF75AB4200F007022ED0D4
:1056A000022A0ED1013363831546012381F3118849
:1056B000BFF36F8FB3B1002331462046FFF793FF4E
:1056C00010E0830701D0062A0ED1002333606368FF
:1056D00093B9C4E90066154662B90A46204602211C
:1056E000FBF760FE284670BD052A0CBF6FF022054F
:1056F0006FF004050023D9E71E606660EBE76FF0EA
:105700000A05F7E7836800EBC101B3F5004F2CBF32
:1057100051F8220031F81200704700EBC101806897
:10572000B0F5004F2CBF41F8223021F812307047FD
:1057300008B50122FFF7E6FF400808BD8368B3F50E
:10574000004F00EBC10108D34B681AB143F00103CD
:105750004B60704723F00103FAE74B881AB143F01E
:1057600001034B80704723F00103FAE75300012245
:10577000FFF7D3BF80680131B0F5004F2CBF022086
:105780000120081AB0FA80F0C0F11F0070472DE91F
:10579000F04104460D46FFF7CBFFA368B3F5004F79
:1057A000014601D3012835D02046FFF7E3FF04EB83
:1057B000800216699EB9012303FA00F0E3680343EF
:1057C000E360294615612B4602222046FFF7A5FF1C
:1057D000032229462046BDE8F041FFF79EBF022282
:1057E00031462046FFF78EFF022203460746294630
:1057F0002046FFF792FF3346032229462046FFF753
:105800008CFF032239462B462046FFF786FF0222F3
:105810003146DFE7BDE8F081B2F5802FF8B52CBF47
:1058200008250425551BCC1D0D4424F0070425F044
:105830000705002200232D1B0460ED08C4E90023A6
:1058400000232946A560E3602046FFF793FF86000A
:105850001B36411CF60804F1100218468B4229DB66
:10586000324620460021FFF781FFAF1B2046012270
:105870000021FFF763FF3A463146FFF777FF3346D3
:10588000314620460022FFF748FF294620460022E5
:10589000FFF76CFF3B46294620460022FFF73DFFFD
:1058A000294620460122FFF749FF3146BDE8F8406E
:1058B000FFF76DBF42F8040B0133CFE72DE9F04F3E
:1058C0008BB09B469DF854300393149B9DF85880F1
:1058D000189F0E46924619460022CDE90012054651
:1058E0000DF110090024DDE9002350465946FAF76E
:1058F00007FCD3B2092B84BF2732D3B203F13002A5
:1059000009F8012BDDE900239B4508BF924504F10E
:10591000010423D2179BA3EB040A2AEAEA7AD346AE
:10592000AAEB0B09BBF1000F01D0039BCBB9A24638
:105930000AF1FF3A04AB314613F80A00A847BAF15E
:10594000000FF5D1DA46BAF1000F10D13B681C44C4
:105950004C445C443C600BB0BDE8F08F82468B4603
:10596000C1E731464046A8470BF1FF3BD8E7314637
:105970004046A8470AF1FF3AE5E770478368DB68CD
:105980001847FEF723BC70B502684C68A24216D3D4
:105990008B6823449A4206D2D1E90435AB4204D342
:1059A0006FF00B038B6100200AE0CD68121B05EB42
:1059B000C30645F833204268726001330B61012051
:1059C00070BD70472DE9F0411E4683688B42054645
:1059D0000C4617460FD3721893420CD3C068FFF7DA
:1059E000D0FF6968214483681C683A463346A44660
:1059F000BDE8F04160476FF01500BDE8F0812DE98A
:105A0000F843984683688B4207460D4691461CD35F
:105A100008EB0102934218D3C068FFF7B2FF0646B5
:105A20000021FFF7ABFF044660B979682944B368E9
:105A30004A465C6830464346A0470446012130464A
:105A4000FFF79CFF2046BDE8F8836FF01504F9E7E7
:105A500083688B422DE9F04107460D4690461AD3E4
:105A60000A44934217D3C068FFF78BFF0646002114
:105A7000FFF784FF044658B979682944B368424661
:105A80009B6830469847044601213046FFF776FF71
:105A90002046BDE8F0816FF01504F9E708B5C0684D
:105AA000FFF76FFF83681B699847007808BD08B54A
:105AB000C068FFF766FF83681B699847007908BDD7
:105AC000C268CBB20C2103FB0121086C00F0070077
:105AD00070474FF02003EFF3118283F31188BFF377
